:0A0E57007E187D55DDFEDEFCDFF69F
:010E6100226E
:0E0E480000007F6D7EC87DC7DDFEDEFCDFFA98
:010E56002279
:0600030090000102007FE5
:10023C00EFD3940540037F0122120066FED3940392
:10024C0040037F0222EF7035EE7008120003F45267
:10025C00935294120066B401081200034293F452B4
:10026C0094120066FEB4020712000342934294EE0D
:10027C00B4030A120003FEF45293EE4294EF6401AD
:10028C007037120066FE7008120003F452915292FD
:10029C00EEB401081200034291F45292120066B4BB
:1002AC00020712000342914292120066B4030A1232
:1002BC000003FEF45291EE4292EF6402703712008A
:1002CC0066FE7008120003F452955296EEB40108C3
:1002DC001200034295F45296120066B40207120003
:1002EC000342954296120066B4030A120003FEF410
:1002FC005295EE4296EF64037037120066FE70085A
:10030C00120003F452B152B2EEB4010812000342CF
:10031C00B1F452B2120066B4020712000342B142A9
:10032C00B2120066B4030A120003FEF452B1EE429C
:10033C00B2EF64047037120066FE7008120003F40A
:10034C0052B352B4EEB4010812000342B3F452B4E7
:10035C00120066B4020712000342B342B4120066E4
:10036C00B4030A120003FEF452B3EE42B4EF640578
:10037C007037120066FF7008120003F452C952CA9B
:10038C00EFB4010812000342C9F452CA120066B459
:10039C00020712000342C942CA120066B4030A12D1
:0C03AC000003FFF452C9EF42CA7F002298
:100C7E005B54696D654F75745D2057616974204DC5
:100C8E006F6E746F72203C3D3D3D2074696D656FD3
:0A0C9E0075742035205365632E00A5
:100E2500012EFF012D0009240101FFFF0000000034
:010E350000BC
:100CA800751040751102E4F515751496F513F512D3
:100CB800751701F518751901F51AF51BF51CFB7A5E
:080CC8000079107F01020534E0
:100C4F0075110F7510017B00120C74751110E4F5FE
:100C5F0010FB120C747511C0E4F510FB7A007910BB
:050C6F007F0302023CBE
:0A0C74007A0079107F0112023C2281
:100D5E00E4F510751101751201751301F514751571
:100D6E00637516C0751701FB7A007910FF0206AE87
:100D7E00751008E4F511751201751301F514F515CA
:0D0D8E00FB7A007910120BBC7F01020E628F
:0D000E00E4F528E528D39F40FA7528FF226D
:100D9B00E4F52830CC0FE528D39F40F77BFF7A0C86
:090DAB00797E120E127528FF2258
:100DB400E4F52830CD0FE528D39F40F77BFF7A0C6C
:090DC400797E120E127528FF223F
:10080400E4F508F509F50AF50BF50CF50DF50EF50B
:100814000FC2AF120C4F120CA8120D5E120D7ED235
:10082400AF12001E7F03120B078E088F09D3E50950
:10083400950BE508950A400885080A85090B800B85
:10084400C3E509950DE508950C500885080C850944
:100854000D80D1D3E50B9409E50A94025024AF0E20
:10086400050EEF9405403BE50BB50D0EE50AB50CFE
:1008740009450B70057529118003752901E4F50EEE
:100884008020C3E50B940EE50A94034012AF0F05D4
:100894000FEFD39405400B752910E4F50F8003E4A2
:1008A400F529850C0A850D0BE529603420CD0AE570
:1008B40026F470030208288032E529641160057F5C
:1008C40032120E57E526640160077F01120C0F8F68
:1008D400267F64120DB4E526F47003020828800B09
:1008E40020CC12E526F470030208287FFF120C0FB7
:1008F4008F2602082830910AE526640160117F01E1
:100904008008E526641060077F10120C0F8F267F85
:1009140064120D9B7F0412000EE526F47003020896
:0B092400287FFF120C0F8F260208280E
:03000B0002092FB8
:10092F00C0E0C0D053C17F43C110E528D394C85055
:10093F00020528E52D7012D292D2B3E52EF4700382
:10094F00020A0B752EFF020A0B052EE52ED3940516
:10095F004004D2B38002C2B3E529640160030209E7
:10096F00F9E52EC3940F500BE52E94004005C2926B
:10097F00020A0BE52EC39414500BE52EC3940F40BF
:10098F0004D2928077E52EC39423500BE52EC394A7
:10099F00144004C2928065E52EC39487500BE52E58
:1009AF00C394234004D2928053E52EC39496500BE8
:1009BF00E52EC394874004C2928041E52EC3949BD9
:1009CF00500BE52EC394964004D292802FE52EC390
:1009DF0094AA500BE52EC3949B4004C292801DE550
:1009EF002EC394AF4016C2928012E529B4100DE5C4
:1009FF002ED394194004D2928002C292D0D0D0E06C
:010A0F0032B4
:100D1C004EF58990000302007F9000050200AC9014
:100D2C00000202007F90000402007F900007020086
:010D3C007F37
:03001B00020009D7
:0100090032C4
:0300630002000A8E
:01000A0032C3
:1006AE00AD07EDD3940240037F0122ED706EC28C34
:1006BE00120D2BB40104D2A98002C2A9900001121E
:1006CE00007FB40104D2B98002C2B9120066FED313
:1006DE00940340037F0222E58954FC120D1CFFB4E3
:1006EE000103538E7FEF7003438E80EFB4020543F8
:1006FE00890480035389FB120D31B40105438F0128
:10070E008003538FFE120D25E5F0F58C120D25F5A5
:10071E008A120D37B40102D28C7F0022ED64017073
:10072E006EC28E120D2BB40104D2AB8002C2AB90FE
:10073E00000112007FB40104D2BB8002C2BB1200C2
:10074E0066FEC3940340037F0222E58954CF120D47
:10075E001CFFB40103538EBFEF7003438E40EFB402
:10076E00020543894080035389BF120D31B4010540
:10077E00438F028003538FFD120D25E5F0F58D1288
:10078E000D25F58B120D37B40102D28E7F0022EDAE
:10079E006402705F538EEF120D2BB4010543AF044C
:1007AE00800353AFFB120D1FFED3940240037F0252
:1007BE0022EEB40103538EFB120D1F7003438E0401
:1007CE00120D1FB40205438E088003538EF7120DCF
:1007DE0031B40105438F048003538FFB120D25FDA9
:1007EE00ACF0ECF5D68DD7120D37B40103438E1055
:0607FE007F00227F0222B1
:100DFE00AF23AE22AD21AC2078080201C3AB1DAAF1
:040E0E001EA91F22D8
:060534008B1D8A1E891FC9
:10053A00EF640160030206AB752F01F530F531F562
:10054A0032F533F534F5357F407881E4F608DFFC7F
:10055A007F407841E4F608DFFC120E0B120066D3E6
:10056A0094C040037F012290000A12007FB4010464
:10057A00D2BC8002C2BC120066FFE598543F4FF518
:10058A0098EF64C06008EF6440600302063590008B
:10059A00021201D67F807E8D7D5B7C001201208F46
:1005AA00238E228D218C20E4FFFE7D01FCAB23AA41
:1005BA0022A921A820C31201B240037F0222C3E468
:1005CA009523F523E49522F52274019521F521E47A
:1005DA009520F520120E0B90000112007FFB64019A
:1005EA007022C28E538EFE5389BF5389CF438E40E9
:1005FA00120DFE8F8D85238BC2AB5389BF538FFD9E
:10060A00D28E8058EB6402701F538EEF438E0153D3
:10061A008EF7438E04120DFE8FD68523D753AFFB78
:10062A00538EF7438E1080347F0222120E0B120073
:10063A0066FF701390000812007FB40105438E20F4
:10064A00801A538EDF8015EFB480119000081200D3
:10065A007FB40105438780800353877F120E0B9076
:10066A00000912007FB40104D2AC8002C2AC90002F
:10067A000712007FB40104D29C8002C29C90000B36
:10068A0012007F54C0FFE5A2543F4FF5A290000C20
:10069A0012007FB4010543971080035397EF7F0040
:0306AA00227F03A9
:0106AD00222A
:100D3D00E53270FC74812531F8A6070531E531C324
:100D4D0094404003E4F531E5327005753201D299D6
:010D5D002273
:100E1200120066FF600C120D3D740129F9E43AFAE2
:030E220080EE223D
:03002300020B6469
:100B6400C0E0C0D075D000C000C00730981DC29846
:100B7400E5357017E533C394404003753300AF3354
:100B8400053374412FF8A699753405309921C2991B
:100B9400E5306531601674812530F8E6F599053045
:100BA400E530C3944040087530008003753200D0AE
:080BB40007D000D0D0D0E032E0
:1003B80053797374656D20656E7465727920506F1A
:1003C80077657220446F776E206D6F6465202E2EDE
:1003D8002E0D0A0D0A00436F6C64207265736574F4
:1003E8002C2064656C617920347320656E746572A5
:1003F800792073797374656D202E2E2E0D0A005B9B
:100408004D6F746F72207374617475735D203D3D18
:100418003D3E200D0A005B4D6F746F72207374614E
:100428007475735D203C3D3D3D200D0A005B4D6FAA
:10043800746F72207374617475735D2053746F7078
:100448002E0D0A0D0A000D0A002A00200020202087
:100458002020202020BAFEB1B1CAA2BCD1B5E7C67F
:10046800F7C9E8B1B8D3D0CFDEB9ABCBBE202D20C9
:10047800D6C7C4DCD7D4B6AFBACFD5A2BFD8D6C6F4
:10048800CFB5CDB30D0A00202056657273696F6E23
:10049800204E6F2E2020203A2056657220312E30B3
:1004A8000D0A00202044657369676E6564205469ED
:1004B8006D65203A20323031362D30332D32310DF2
:1004C8000A00202054656C6570686F6E65202020D6
:1004D80020203A20303237202D2038333532303042
:1004E8003636202F2038333536373037370D0A0067
:1004F8002020202020202020416C6C207269676811
:100508007473207265736572766564202863293276
:100518003031362020687474703A2F2F7777772E11
:0C052800736A64712E636F6D2F0D0A0062
:04001E0075C13A224C
:100DCD007BFF7A0379B8120E12D2001200000000D8
:090DDD000043870200000000221F
:100DE600E58730E4117BFF7A0379DE120E12120ECC
:080DF600485387EFD322C3220A
:100E3700E5C730E60353C73FE5C720E50343C7606F
:010E47002288
:020C0F008F1044
:100C11007511FFE510B4010FC2B7D2B67511017B92
:100C2100FF7A0479078021E510B4100FD2B7C2B65C
:100C31007511107BFF7A04791E800DD2B7D2B6757B
:0D0C410011FF7BFF7A047935120E12AF11FE
:010C4E002283
:08002E008B368A3789388D39C1
:10003600E4F53AE539D394004020E4F53AE53AC3CD
:100046009539500DAB36AA37A938120E12053A80EB
:0A005600EC7BFF7A04794E120E12C3
:01006000227D
:100A9C007BFF7A0479517D3E12002E120AFB7A04F8
:100AAC007955120AE87A0479537D0112002E7BFFE6
:100ABC007A04798F120E127BFF7A0479AB120E1224
:100ACC007A0479CA120AE87A0479F8120E12120A18
:100ADC00FB7BFF7A0479517D3E02002E7BFF120EC8
:100AEC00127BFF7A0479537D0112002E7BFF227B4F
:0B0AFC00FF7A0479537D0112002E22C6
:100BBC00120066F59D90000112007FFFE5BC549F6A
:100BCC004FF5BC90000212007FB4010543BC80803D
:100BDC000353BC7F90000312007FB40105439720A0
:100BEC0080035397DF90000512007FB40104D2AD4F
:100BFC008002C2AD90000412007FB40103D2BD226A
:030C0C00C2BD2244
:0B0E6200BF010443BC802253BC7F2270
:100B0700EFD3940740028050E4F5BDF5BEE5BC5431
:100B1700E044084FF5BC00000000E4FBE5BC30E40E
:100B27003353BCEFE59730E509E5BD5403ADBEFC93
:100B3700801DAFBD7C00AD07ED7E007802C333CECC
:100B470033CED8F9FFE5BE5403FDEEFCEF4DFDAF04
:0C0B570005AE04220BBBFAC47E047F0034
:010B6300226F
:03002B00020026AA
:0400260053BCEF32A6
:060CF8008B3B8A3C893DA4
:100CFE00E4FFFEEFC39D5013AB3BAA3CA93D8F8290
:0D0D0E0075830012007F2EFE0F80E8AF06F7
:010D1B0022B5
:030E7700D2B222D2
:030E7A00C2B222DF
:0A0E6D00C2998F993099FDC29922B5
:080CD0008B3E8A3F8940AE070C
:100CD800E4FDEDC39E5018AB3E0540E540AA3F70C9
:0F0CE80002053F14F9120066FF120E6D0D80E336
:010CF70022DA
:03000000020A10E1
:0C0A1000787FE4F6D8FD7581C0020A571B
:10006600BB010689828A83E0225002E722BBFE0298
:09007600E32289828A83E49322CB
:10007F00BB010CE58229F582E5833AF583E0225036
:10008F0006E92582F8E622BBFE06E92582F8E22280
:0D009F00E58229F582E5833AF583E493229A
:1000AC00BB0110E58229F582E5833AF583E0F5F092
:1000BC00A3E0225009E92582F886F008E622BBFE6F
:1000CC000AE92582F8E2F5F008E222E5832AF583B5
:0800DC00E993F5F0A3E993227A
:1000E40075F008758200EF2FFFEE33FECD33CDCCD3
:1000F40033CCC58233C5829BED9AEC99E582984056
:100104000CF582EE9BFEED9AFDEC99FC0FD5F0D632
:10011400E4CEFBE4CDFAE4CCF9A88222B800C1B95C
:100124000059BA002DEC8BF084CFCECDFCE5F0CB9A
:10013400F97818EF2FFFEE33FEED33FDEC33FCEBD3
:1001440033FB10D703994004EB99FB0FD8E5E4F98E
:10015400FA227818EF2FFFEE33FEED33FDEC33FC7B
:10016400C933C910D7059BE99A4007EC9BFCE99A6F
:10017400F90FD8E0E4C9FAE4CCFB2275F010EF2FB4
:10018400FFEE33FEED33FDCC33CCC833C810D707B4
:100194009BEC9AE899400AED9BFDEC9AFCE899F8EF
:0E01A4000FD5F0DAE4CDFBE4CCFAE4C8F92282
:1001B200EB9FF5F0EA9E42F0E99D42F0E89C45F0A3
:0101C200221A
:1001C300E8600FECC313FCED13FDEE13FEEF13FF1A
:0301D300D8F1223E
:1001D600BB010DE58229F582E5833AF58302021318
:1001E6005007E92582F8020206BBFE07E92582F8D8
:1001F60002021FE58229F582E5833AF58302022C85
:100A1C00020804E493A3F8E493A34003F68001F2E4
:100A2C0008DFF48029E493A3F85407240CC8C333DB
:100A3C00C4540F4420C8834004F456800146F6DFAA
:100A4C00E4800B0102040810204080900E25E47E07
:100A5C00019360BCA3FF543F30E509541FFEE4939F
:100A6C00A360010ECF54C025E060A840B8E493A366
:100A7C00FAE493A3F8E493A3C8C582C8CAC583CA91
:100A8C00F0A3C8C582C8CAC583CADFE9DEE780BE49
:010E360000BB
:0D020600E6FB08E6F908E6FA08E6CBF82268
:0C021300E0F8A3E0F9A3E0FAA3E0FB226E
:0D021F00E2FB08E2F908E2FA08E2CBF8225F
:10022C00E493F8740193F9740293FA740393FB2228
:00000001FF
