:0A1053007E187D55DDFEDEFCDFF6A1
:01105D002270
:0C000E0000007E03DEFEAE071FEE70F463
:01001A0022C3
:0E10370000007F6D7EC87DC7DDFEDEFCDFFAA7
:011045002288
:0600030090000102007FE5
:10042100EFD3940540037F0122120066FED39403AB
:1004310040037F0222EF7035EE7008120003F45280
:10044100935294120066B401081200034293F452CD
:1004510094120066FEB4020712000342934294EE26
:10046100B4030A120003FEF45293EE4294EF6401C6
:100471007037120066FE7008120003F45291529216
:10048100EEB401081200034291F45292120066B4D4
:10049100020712000342914292120066B4030A124B
:1004A1000003FEF45291EE4292EF640270371200A3
:1004B10066FE7008120003F452955296EEB40108DC
:1004C1001200034295F45296120066B4020712001C
:1004D1000342954296120066B4030A120003FEF429
:1004E1005295EE4296EF64037037120066FE700873
:1004F100120003F452B152B2EEB4010812000342E9
:10050100B1F452B2120066B4020712000342B142C2
:10051100B2120066B4030A120003FEF452B1EE42B5
:10052100B2EF64047037120066FE7008120003F423
:1005310052B352B4EEB4010812000342B3F452B400
:10054100120066B4020712000342B342B4120066FD
:10055100B4030A120003FEF452B3EE42B4EF640591
:100561007037120066FF7008120003F452C952CAB4
:10057100EFB4010812000342C9F452CA120066B472
:10058100020712000342C942CA120066B4030A12EA
:0C0591000003FFF452C9EF42CA7F0022B1
:100BC6005B54696D654F75745D2057616974204D7E
:100BD6006F6E746F72203C3D3D3D2074696D656F8C
:100BE60075742035205365632E004D617820566F4D
:100BF6006C743A200020202D2D2D2020004F5645C4
:100C0600525F564F4C544147450D0A004C4F5353C3
:100C16005F564F4C544147450D0A00554E444552C8
:100C26005F564F4C544147450D0A004E4F524D41B9
:0C0C36004C5F564F4C544147450D0A00DE
:10100000012BFF0126FF0129FF012AFF0128110101
:0210100027FFB8
:100E9600750B40750C02E4F510750F96F50EF50D01
:100EA600751201F513751401F515F516F517FB7A8C
:080EB60000790B7F0102059D8C
:100F4C00E4F50B750C01750D01750E01F50F75109F
:100F5C00637511C0751201FB7A00790BFF020871E1
:100C4200750C03120C8C750C38120C8C750C04E4A8
:100C5200F50BFB7A00790B7F01120421750C3075BC
:100C62000B017F05120CA9750CC0750B027F0312D4
:100C72000CA9750C04120C9B750C08120C9B7FFFBF
:090C8200120E26C2B2D292D2B3C6
:100C8B0022750B017B007A00790B7F011204212264
:100C9B00E4F50BFB7A00790B7F03120421227B0016
:080CAB007A00790B12042122EA
:100F6C00750B38E4F50C750D01750E01F50FF510C8
:0D0F7C00FB7A00790B120DD37F0102105E8D
:0D104600E4F52AE52AD39F40FA752AFF221F
:100F8900E4F52A30CC0FE52AD39F40F77BFF7A0B93
:090F990079C6121013752AFF221B
:100FA200E4F52A30CD0FE52AD39F40F77BFF7A0B79
:090FB20079C6121013752AFF2202
:10071700E4F508F509F50AC2AF120C42120E96125B
:100727000F4C120F6CD2AF12001EB2B2120E668EB1
:10073700098F0A7BFF7A0B79F0121013AE09AF0A03
:100747007C037DE81200AC1208597D641208437DD2
:100757000A120843AE09AF0A1208597BFF7A0B79D0
:10076700FB121013C3E50A94BCE5099403400B750B
:1007770028107BFF7A0C79038030D3E50A9434E59F
:10078700099403501CE50A4509700B7528117BFF76
:100797007A0C791280147528017BFF7A0C792180F5
:1007A70009E4F5287BFF7A0C7931121013E4F50977
:1007B700F50AE5286043E4F52BE528B40105E4F5DF
:1007C700298008E528B41003E4F52620CD07E5279E
:1007D700F460608057E528641160057F321210537A
:1007E700E527640160077F01120E268F277F6412B9
:1007F7000FA2E527F4603C803320CC07E527F4609F
:1008070032802930910AE527640160117F01800851
:10081700E527641060077F10120E268F277F64126A
:100827000F897F04121046E527F460077FFF120E39
:0C083700268F271208661208660207319F
:10084300AE09AF0A7C001200AC7C007D0A1200AC3A
:10085300AF05120AA6227C007D0A1200ACAF051276
:0E0863000AA6227FFA1210537FFA12105322B7
:03000B000209C720
:1009C700C0E0C0D075D000C00753C17F43C110E558
:1009D7002AD394C85002052AE52BF46011C2B3AF9D
:1009E7002B052BEFD394054005752BFFD2B3E526D6
:1009F700F46011C292AF260526EFD394194005750E
:100A070026FFD292E529F47003020A9F0529E529FA
:100A1700C3940F500BE529C394004004C292807819
:100A2700E529C39414500BE529C3940F4004D292CF
:100A37008066E529C39423500BE529C39414400429
:100A4700C2928054E529C39487500BE529C39423A8
:100A57004004D2928042E529C39496500BE529C3FE
:100A670094874004C2928030E529C3949B500BE5DC
:100A770029C394964004D292801EE529C394AA50B4
:100A87000BE529C3949B4004C292800CE529C394CB
:0F0A9700AA4005D2927529FFD007D0D0D0E03207
:100F0A004EF58990000302007F90000502010190CE
:100F1A00000202007F90000402007F900007020096
:010F2A007F47
:03001B00020009D7
:0100090032C4
:0300630002000A8E
:01000A0032C3
:10087100AD07EDD3940240037F0122ED706EC28C6F
:10088100120F19B40104D2A98002C2A99000011269
:10089100007FB40104D2B98002C2B9120066FED34E
:1008A100940340037F0222E58954FC120F0AFFB42E
:1008B1000103538E7FEF7003438E80EFB402054333
:1008C100890480035389FB120F1FB40105438F0173
:1008D1008003538FFE120F13E5F0F58C120F13F501
:1008E1008A120F25B40102D28C7F0022ED640170BF
:1008F1006EC28E120F19B40104D2AB8002C2AB904A
:10090100000112007FB40104D2BB8002C2BB1200FD
:1009110066FEC3940340037F0222E58954CF120F80
:100921000AFFB40103538EBFEF7003438E40EFB44F
:10093100020543894080035389BF120F1FB401058B
:10094100438F028003538FFD120F13E5F0F58D12D3
:100951000F13F58B120F25B40102D28E7F0022ED09
:100961006402705F538EEF120F19B4010543AF0497
:10097100800353AFFB120F0DFED3940240037F029D
:1009810022EEB40103538EFB120F0D7003438E044C
:10099100120F0DB40205438E088003538EF7120F18
:1009A1001FB40105438F048003538FFB120F13FD06
:1009B100ACF0ECF5D68DD7120F25B40103438E10A0
:0609C1007F00227F0222EC
:100FEC00AF1EAE1DAD1CAC1B7808020218AB18AAC4
:040FFC0019A91A22F3
:06059D008B188A19891A6F
:1005A300EF64016003020714751F01F520F521F5BF
:1005B30022F523F524F5257F407877E4F608DFFC60
:1005C3007F407837E4F608DFFC120FF9120066D398
:1005D30094C040037F012290000A12007FB40104FB
:1005E300D2BC8002C2BC120066FFE598543F4FF5AF
:1005F30098EF64C06008EF6440600302069E9000B9
:100603000212022B7F807E8D7D5B7C001201758F31
:100613001E8E1D8D1C8C1BE4FFFE7D01FCAB1EAAF0
:100623001DA91CA81BC312020740037F0222C3E4B7
:10063300951EF51EE4951DF51D7401951CF51CE42E
:10064300951BF51B120FF990000112007FFB64014B
:100653007022C28E538EFE5389BF5389CF438E407F
:10066300120FEC8F8D851E8BC2AB5389BF538FFD49
:10067300D28E8058EB6402701F538EEF438E01536A
:100683008EF7438E04120FEC8FD6851ED753AFFB24
:10069300538EF7438E1080347F0222120FF912001B
:1006A30066FF701390000812007FB40105438E208B
:1006B300801A538EDF8015EFB4801190000812006A
:1006C3007FB40105438780800353877F120FF9901E
:1006D300000912007FB40104D2AC8002C2AC9000C6
:1006E3000712007FB40104D29C8002C29C90000BCD
:1006F30012007F54C0FFE5A2543F4FF5A290000CB7
:1007030012007FB4010543971080035397EF7F00D6
:03071300227F033F
:0107160022C0
:100F2B00E52270FC74772521F8A6070521E521C37E
:100F3B0094404003E4F521E5227005752201D29916
:010F4B002283
:10101300120066FF600C120F2B740129F9E43AFAEF
:0310230080EE223A
:03002300020D7B50
:100D7B00C0E0C0D075D000C000C00730981DC2982D
:100D8B00E5257017E523C394404003752300AF237B
:100D9B00052374372FF8A699752405309921C2992C
:100DAB00E5206521601674772520F8E6F599052076
:100DBB00E520C3944040087520008003752200D0C5
:080DCB0007D000D0D0D0E032C7
:1002910053797374656D20656E7465727920506F42
:1002A10077657220446F776E206D6F6465202E2E06
:1002B1002E0D0A0D0A00436F6C642072657365741C
:1002C1002C2064656C617920347320656E746572CD
:1002D100792073797374656D202E2E2E0D0A005BC3
:1002E1004D6F746F72207374617475735D203D3D41
:1002F1003D3E200D0A005B4D6F746F722073746177
:100301007475735D203C3D3D3D200D0A005B4D6FD2
:10031100746F72207374617475735D2053746F70A0
:100321002E0D0A0D0A000D0A002A002000202020AF
:100331002020202020BAFEB1B1CAA2BCD1B5E7C6A7
:10034100F7C9E8B1B8D3D0CFDEB9ABCBBE202D20F1
:10035100D6C7C4DCD7D4B6AFBACFD5A2BFD8D6C61C
:10036100CFB5CDB30D0A00202056657273696F6E4B
:10037100204E6F2E2020203A2056657220312E30DB
:100381000D0A00202044657369676E656420546915
:100391006D65203A20323031362D30332D32310D1A
:1003A1000A00202054656C6570686F6E65202020FE
:1003B10020203A20303237202D203833353230306A
:1003C1003636202F2038333536373037370D0A008F
:1003D1002020202020202020416C6C207269676839
:1003E100747320726573657276656420286329329F
:1003F1003031362020687474703A2F2F7777772E3A
:10040100736A64712E636F6D2F0D0A003000310025
:10041100320033003400350036003700380039002F
:04001E0075C13A224C
:100FBB007BFF7A027991121013D20012000000000D
:090FCB000043870200000000222F
:100FD400E58730E4117BFF7A0279B71210131210FF
:080FE400375387EFD322C3222B
:10102600E5C730E60353C73FE5C720E50343C7607E
:011036002297
:020E26008F0D2E
:100E2800750EFFE50DB4010FC2B7D2B6750E017B82
:100E3800FF7A0279E08021E50DB4100FD2B7C2B66F
:100E4800750E107BFF7A0279F7800DD2B7D2B6758E
:0D0E58000EFF7BFF7A03790E121013AF0E10
:010E6500226A
:08002E008B2C8A2D892E8D2FE9
:10003600E4F530E52FD394004020E4F530E530C3F5
:10004600952F500DAB2CAA2DA92E1210130530801A
:0A005600EC7BFF7A037927121013E8
:01006000227D
:100CB3007BFF7A03792A7D3E12002E120D127A03EE
:100CC300792E120CFF7A03792C7D0112002E7BFF03
:100CD3007A0379681210137BFF7A03798412101355
:100CE3007A0379A3120CFF7A0379D1121013120D30
:100CF300127BFF7A03792A7D3E02002E7BFF1210BE
:100D0300137BFF7A03792C7D0112002E7BFF227B5C
:0B0D1300FF7A03792C7D0112002E22D4
:100AA6008F0BE50B70097BFF7A04790D121013E5A5
:100AB6000BB401097BFF7A04790F121013E50BB40E
:100AC60002097BFF7A047911121013E50BB40309AE
:100AD6007BFF7A047913121013E50BB404097BFF2C
:100AE6007A047915121013E50BB405097BFF7A0415
:100AF6007917121013E50BB406097BFF7A047919EE
:100B0600121013E50BB407097BFF7A04791B121048
:100B160013E50BB408097BFF7A04791D121013E55F
:100B26000B7BFFB409067A04791F80047A03792CBB
:040B36001210132264
:100E6600E4FEF50BF50C750D13750E887F03120D58
:100E76001EC3EF950CEE950B40048E0B8F0CE50E02
:0F0E8600150EAC0D7002150D4C70E1AE0BAF0CDC
:010E9500223A
:100DD300120066F59D90000112007FFFE5BC549F51
:100DE3004FF5BC90000212007FB4010543BC808024
:100DF3000353BC7F90000312007FB4010543972087
:100E030080035397DF90000512007FB40104D2AD35
:100E13008002C2AD90000412007FB40103D2BD2250
:030E2300C2BD222B
:0B105E00BF010443BC802253BC7F2272
:100D1E00EFD3940740028050E4F5BDF5BEE5BC5418
:100D2E00E044084FF5BC00000000E4FBE5BC30E4F5
:100D3E003353BCEFE59730E509E5BD5403ADBEFC7A
:100D4E00801DAFBD7C00AD07ED7E007802C333CEB3
:100D5E0033CED8F9FFE5BE5403FDEEFCEF4DFDAFEB
:0C0D6E0005AE04220BBBFAC47E047F001B
:010D7A002256
:03002B00020026AA
:0400260053BCEF32A6
:060EE6008B318A328933D2
:100EEC00E4FFFEEFC39D5013AB31AA32A9338F82BE
:0D0EFC0075830012007F2EFE0F80E8AF0608
:010F090022C5
:03107300D2B222D4
:03107600C2B222E1
:0A106900C2998F993099FDC29922B7
:080EBE008B348A358936AE073A
:100EC600E4FDEDC39E5018AB340536E536AA357001
:0F0ED60002053514F9120066FF1210690D80E352
:010EE50022EA
:03000000020B3AB6
:0C0B3A00787FE4F6D8FD7581B6020B81CF
:10006600BB010689828A83E0225002E722BBFE0298
:09007600E32289828A83E49322CB
:10007F00BB010CE58229F582E5833AF583E0225036
:10008F0006E92582F8E622BBFE06E92582F8E22280
:0D009F00E58229F582E5833AF583E493229A
:1000AC00BC000BBE0029EF8DF084FFADF022E4CC38
:1000BC00F875F008EF2FFFEE33FEEC33FCEE9DEC01
:1000CC00984005FCEE9DFE0FD5F0E9E4CEFD22ED47
:1000DC00F8F5F0EE8420D21CFEADF075F008EF2F91
:1000EC00FFED33FD4007985006D5F0F222C398FD82
:0500FC000FD5F0EA221F
:10010100BB0110E58229F582E5833AF583E0F5F03C
:10011100A3E0225009E92582F886F008E622BBFE19
:100121000AE92582F8E2F5F008E222E5832AF5835F
:08013100E993F5F0A3E9932224
:1001390075F008758200EF2FFFEE33FECD33CDCC7D
:1001490033CCC58233C5829BED9AEC99E582984000
:100159000CF582EE9BFEED9AFDEC99FC0FD5F0D6DD
:10016900E4CEFBE4CDFAE4CCF9A88222B800C1B907
:100179000059BA002DEC8BF084CFCECDFCE5F0CB45
:10018900F97818EF2FFFEE33FEED33FDEC33FCEB7E
:1001990033FB10D703994004EB99FB0FD8E5E4F939
:1001A900FA227818EF2FFFEE33FEED33FDEC33FC26
:1001B900C933C910D7059BE99A4007EC9BFCE99A1A
:1001C900F90FD8E0E4C9FAE4CCFB2275F010EF2F5F
:1001D900FFEE33FEED33FDCC33CCC833C810D7075F
:1001E9009BEC9AE899400AED9BFDEC9AFCE899F89A
:0E01F9000FD5F0DAE4CDFBE4CCFAE4C8F9222D
:10020700EB9FF5F0EA9E42F0E99D42F0E89C45F04D
:0102170022C4
:10021800E8600FECC313FCED13FDEE13FEEF13FFC4
:03022800D8F122E8
:10022B00BB010DE58229F582E5833AF5830202686D
:10023B005007E92582F802025BBBFE07E92582F82D
:10024B00020274E58229F582E5833AF58302028185
:100B4600020717E493A3F8E493A34003F68001F2A7
:100B560008DFF48029E493A3F85407240CC8C333B0
:100B6600C4540F4420C8834004F456800146F6DF7F
:100B7600E4800B0102040810204080901000E47EFF
:100B8600019360BCA3FF543F30E509541FFEE49374
:100B9600A360010ECF54C025E060A840B8E493A33B
:100BA600FAE493A3F8E493A3C8C582C8CAC583CA66
:100BB600F0A3C8C582C8CAC583CADFE9DEE780BE1E
:0110120000DD
:0D025B00E6FB08E6F908E6FA08E6CBF82213
:0C026800E0F8A3E0F9A3E0FAA3E0FB2219
:0D027400E2FB08E2F908E2FA08E2CBF8220A
:10028100E493F8740193F9740293FA740393FB22D3
:00000001FF
