:0A0FF8007E187D55DDFEDEFCDFF6FD
:0110020022CB
:0C000E0000007E03DEFEAE071FEE70F463
:01001A0022C3
:0E0FDC0000007F6D7EC87DC7DDFEDEFCDFFA03
:010FEA0022E4
:0600030090000102007FE5
:10042100EFD3940540037F0122120066FED39403AB
:1004310040037F0222EF7035EE7008120003F45280
:10044100935294120066B401081200034293F452CD
:1004510094120066FEB4020712000342934294EE26
:10046100B4030A120003FEF45293EE4294EF6401C6
:100471007037120066FE7008120003F45291529216
:10048100EEB401081200034291F45292120066B4D4
:10049100020712000342914292120066B4030A124B
:1004A1000003FEF45291EE4292EF640270371200A3
:1004B10066FE7008120003F452955296EEB40108DC
:1004C1001200034295F45296120066B4020712001C
:1004D1000342954296120066B4030A120003FEF429
:1004E1005295EE4296EF64037037120066FE700873
:1004F100120003F452B152B2EEB4010812000342E9
:10050100B1F452B2120066B4020712000342B142C2
:10051100B2120066B4030A120003FEF452B1EE42B5
:10052100B2EF64047037120066FE7008120003F423
:1005310052B352B4EEB4010812000342B3F452B400
:10054100120066B4020712000342B342B4120066FD
:10055100B4030A120003FEF452B3EE42B4EF640591
:100561007037120066FF7008120003F452C952CAB4
:10057100EFB4010812000342C9F452CA120066B472
:10058100020712000342C942CA120066B4030A12EA
:0C0591000003FFF452C9EF42CA7F0022B1
:100BB5005B54696D654F75745D2057616974204D8F
:100BC5006F6E746F72203C3D3D3D2074696D656F9D
:100BD50075742035205365632E004D617820566F5E
:100BE5006C743A20000D0A004F5645525F564F4C23
:100BF500544147450D0A004C4F53535F564F4C54D3
:100C05004147450D0A00554E4445525F564F4C54D9
:100C15004147450D0A004E4F524D414C5F564F4CD2
:070C2500544147450D0A0090
:0F0FCC000129FF012800012AFF0127110126FF3B
:100E3E00750B40750C02E4F510750F96F50EF50D59
:100E4E00751201F513751401F515F516F517FB7AE4
:080E5E0000790B7F0102059DE4
:100E0F00750C07750B017B00120E34750C10E4F591
:100E1F000BFB120E34750CC0E4F50BFB7A00790B4B
:050E2F007F0302042115
:0A0E34007A00790B7F0112042122DD
:100EF400E4F50B750C01750D01750E01F50F7510F8
:100F0400637511C0751201FB7A00790BFF02071794
:100F1400750B08E4F50C750D01750E01F50FF51050
:0D0F2400FB7A00790B120D4C7F01021003C7
:0D0FEB00E4F52AE52AD39F40FA752AFF227B
:100F3100E4F52A30CC0FE52AD39F40F77BFF7A0BEB
:090F410079B5120FA8752AFF22F0
:100F4A00E4F52A30CD0FE52AD39F40F77BFF7A0BD1
:090F5A0079B5120FA8752AFF22D7
:10086D00E4F508F509F50AC2AF120E0F120E3E128D
:10087D000EF4120F14D2AF12001EB295120DDF8EB0
:10088D00098F0A7BFF7A0B79DF120FA8AE09AF0A29
:10089D007C037DE81200AC12099C7D641209867DF3
:1008AD000A120986AE09AF0A12099C7BFF7A0B79F1
:1008BD00EA120FA8C3E50A947BE5099401400B7574
:1008CD0027107BFF7A0B79ED8030D3E50A9452E542
:1008DD00099401501CE50A4509700B7527117BFF22
:1008ED007A0B79FC80147527017BFF7A0C790B80CC
:1008FD0009E4F5277BFF7A0C791B120FA8E4F509A3
:10090D00F50AE527602E20CD07E526F460628059B3
:10091D00E527641160057F32120FF8E5266401604A
:10092D00077F01120D9F8F267F64120F4AE526F473
:10093D00603E8035B29420CC07E526F460328029E4
:10094D0030910AE526640160117F018008E5266477
:10095D001060077F10120D9F8F267F64120F317F5D
:10096D0004120FEBE526F460077FFF120D9F8F2613
:09097D001209A91209A902088758
:10098600AE09AF0A7C001200AC7C007D0A1200ACF6
:10099600AF05120A95227C007D0A1200ACAF051243
:0E09A6000A95227FFA120FF87FFA120FF8223C
:03000B000209B433
:1009B400C0E0C0D053C17F43C110E52AD394C850CE
:1009C40002052AE5287012D292D2B3E529F4700305
:1009D400020A907529FF020A900529E529D3940596
:1009E4004004D2B38002C2B3E52764016003020A63
:1009F4007EE529C3940F500BE52994004005C2926B
:100A0400020A90E529C39414500BE529C3940F40BE
:100A140004D2928077E529C39423500BE529C3942B
:100A2400144004C2928065E529C39487500BE529DC
:100A3400C394234004D2928053E529C39496500B67
:100A4400E529C394874004C2928041E529C3949B5D
:100A5400500BE529C394964004D292802FE529C314
:100A640094AA500BE529C3949B4004C292801DE5CF
:100A740029C394AF4016C2928012E527B4100DE545
:100A840029D394194004D2928002C292D0D0D0E0EB
:010A9400322F
:100EB2004EF58990000302007F9000050201019027
:100EC200000202007F90000402007F9000070200EF
:010ED2007FA0
:03001B00020009D7
:0100090032C4
:0300630002000A8E
:01000A0032C3
:10071700AD07EDD3940240037F0122ED706EC28CCA
:10072700120EC1B40104D2A98002C2A9900001121D
:10073700007FB40104D2B98002C2B9120066FED3A9
:10074700940340037F0222E58954FC120EB2FFB4E2
:100757000103538E7FEF7003438E80EFB40205438E
:10076700890480035389FB120EC7B40105438F0127
:100777008003538FFE120EBBE5F0F58C120EBBF50E
:100787008A120ECDB40102D28C7F0022ED64017073
:100797006EC28E120EC1B40104D2AB8002C2AB90FE
:1007A700000112007FB40104D2BB8002C2BB120059
:1007B70066FEC3940340037F0222E58954CF120EDD
:1007C700B2FFB40103538EBFEF7003438E40EFB403
:1007D700020543894080035389BF120EC7B4010540
:1007E700438F028003538FFD120EBBE5F0F58D1288
:1007F7000EBBF58B120ECDB40102D28E7F0022ED17
:100807006402705F538EEF120EC1B4010543AF044B
:10081700800353AFFB120EB5FED3940240037F0251
:1008270022EEB40103538EFB120EB57003438E0400
:10083700120EB5B40205438E088003538EF7120ECD
:10084700C7B40105438F048003538FFB120EBBFD12
:10085700ACF0ECF5D68DD7120ECDB40103438E1054
:060867007F00227F022247
:100F9400AF1EAE1DAD1CAC1B7808020218AB18AA1C
:040FA40019A91A224B
:06059D008B188A19891A6F
:1005A300EF64016003020714751F01F520F521F5BF
:1005B30022F523F524F5257F407876E4F608DFFC61
:1005C3007F407836E4F608DFFC120FA1120066D3F1
:1005D30094C040037F012290000A12007FB40104FB
:1005E300D2BC8002C2BC120066FFE598543F4FF5AF
:1005F30098EF64C06008EF6440600302069E9000B9
:100603000212022B7F807E8D7D5B7C001201758F31
:100613001E8E1D8D1C8C1BE4FFFE7D01FCAB1EAAF0
:100623001DA91CA81BC312020740037F0222C3E4B7
:10063300951EF51EE4951DF51D7401951CF51CE42E
:10064300951BF51B120FA190000112007FFB6401A3
:100653007022C28E538EFE5389BF5389CF438E407F
:10066300120F948F8D851E8BC2AB5389BF538FFDA1
:10067300D28E8058EB6402701F538EEF438E01536A
:100683008EF7438E04120F948FD6851ED753AFFB7C
:10069300538EF7438E1080347F0222120FA1120073
:1006A30066FF701390000812007FB40105438E208B
:1006B300801A538EDF8015EFB4801190000812006A
:1006C3007FB40105438780800353877F120FA19076
:1006D300000912007FB40104D2AC8002C2AC9000C6
:1006E3000712007FB40104D29C8002C29C90000BCD
:1006F30012007F54C0FFE5A2543F4FF5A290000CB7
:1007030012007FB4010543971080035397EF7F00D6
:03071300227F033F
:0107160022C0
:100ED300E52270FC74762521F8A6070521E521C3D8
:100EE30094404003E4F521E5227005752201D2996F
:010EF30022DC
:100FA800120066FF600C120ED3740129F9E43AFAB4
:030FB80080EE22A6
:03002300020CF4D8
:100CF400C0E0C0D075D000C000C00730981DC298B5
:100D0400E5257017E523C394404003752300AF2302
:100D1400052374362FF8A699752405309921C299B4
:100D2400E5206521601674762520F8E6F5990520FE
:100D3400E520C3944040087520008003752200D04C
:080D440007D000D0D0D0E0324E
:1002910053797374656D20656E7465727920506F42
:1002A10077657220446F776E206D6F6465202E2E06
:1002B1002E0D0A0D0A00436F6C642072657365741C
:1002C1002C2064656C617920347320656E746572CD
:1002D100792073797374656D202E2E2E0D0A005BC3
:1002E1004D6F746F72207374617475735D203D3D41
:1002F1003D3E200D0A005B4D6F746F722073746177
:100301007475735D203C3D3D3D200D0A005B4D6FD2
:10031100746F72207374617475735D2053746F70A0
:100321002E0D0A0D0A000D0A002A002000202020AF
:100331002020202020BAFEB1B1CAA2BCD1B5E7C6A7
:10034100F7C9E8B1B8D3D0CFDEB9ABCBBE202D20F1
:10035100D6C7C4DCD7D4B6AFBACFD5A2BFD8D6C61C
:10036100CFB5CDB30D0A00202056657273696F6E4B
:10037100204E6F2E2020203A2056657220312E30DB
:100381000D0A00202044657369676E656420546915
:100391006D65203A20323031362D30332D32310D1A
:1003A1000A00202054656C6570686F6E65202020FE
:1003B10020203A20303237202D203833353230306A
:1003C1003636202F2038333536373037370D0A008F
:1003D1002020202020202020416C6C207269676839
:1003E100747320726573657276656420286329329F
:1003F1003031362020687474703A2F2F7777772E3A
:10040100736A64712E636F6D2F0D0A003000310025
:10041100320033003400350036003700380039002F
:04001E0075C13A224C
:100F63007BFF7A027991120FA8D2001200000000D1
:090F730000438702000000002287
:100F7C00E58730E4117BFF7A0279B7120FA8120FC4
:080F8C00DC5387EFD322C322DE
:100FBB00E5C730E60353C73FE5C720E50343C760EA
:010FCB002203
:020D9F008F0BB8
:100DA100750CFFE50BB4010FC2B7D2B6750C017B10
:100DB100FF7A0279E08021E50BB4100FD2B7C2B6F9
:100DC100750C107BFF7A0279F7800DD2B7D2B67518
:0D0DD1000CFF7BFF7A03790E120FA8AF0C08
:010DDE0022F2
:08002E008B2B8A2C892D8D2EED
:10003600E4F52FE52ED394004020E4F52FE52FC3F9
:10004600952E500DAB2BAA2CA92D120FA8052F808B
:0A005600EC7BFF7A037927120FA854
:01006000227D
:100C2C007BFF7A03792A7D3E12002E120C8B7A03FD
:100C3C00792E120C787A03792C7D0112002E7BFF11
:100C4C007A037968120FA87BFF7A037984120FA8B4
:100C5C007A0379A3120C787A0379D1120FA8120CAB
:100C6C008B7BFF7A03792A7D3E02002E7BFF120FCD
:100C7C00A87BFF7A03792C7D0112002E7BFF227B4F
:0B0C8C00FF7A03792C7D0112002E225C
:100A95008F0BE50B70097BFF7A04790D120FA8E522
:100AA5000BB401097BFF7A04790F120FA8E50BB48B
:100AB50002097BFF7A047911120FA8E50BB403092B
:100AC5007BFF7A047913120FA8E50BB404097BFFA9
:100AD5007A047915120FA8E50BB405097BFF7A0492
:100AE5007917120FA8E50BB406097BFF7A0479196B
:100AF500120FA8E50BB407097BFF7A04791B120FC7
:100B0500A8E50BB408097BFF7A04791D120FA8E547
:100B15000B7BFFB409067A04791F80047A03792CCC
:040B2500120FA822E1
:100DDF00E4FEF50BF50C750D13750E887F03120CE1
:100DEF0097C3EF950CEE950B40048E0B8F0CE50E11
:0F0DFF00150EAC0D7002150D4C70E1AE0BAF0C64
:010E0E0022C1
:100D4C00120066F59D90000112007FFFE5BC549FD8
:100D5C004FF5BC90000212007FB4010543BC8080AB
:100D6C000353BC7F90000312007FB401054397200E
:100D7C0080035397DF90000512007FB40104D2ADBD
:100D8C008002C2AD90000412007FB40103D2BD22D8
:030D9C00C2BD22B3
:0B100300BF010443BC802253BC7F22CD
:100C9700EFD3940740028050E4F5BDF5BEE5BC54A0
:100CA700E044084FF5BC00000000E4FBE5BC30E47D
:100CB7003353BCEFE59730E509E5BD5403ADBEFC02
:100CC700801DAFBD7C00AD07ED7E007802C333CE3B
:100CD70033CED8F9FFE5BE5403FDEEFCEF4DFDAF73
:0C0CE70005AE04220BBBFAC47E047F00A3
:010CF30022DE
:03002B00020026AA
:0400260053BCEF32A6
:060E8E008B308A3189322D
:100E9400E4FFFEEFC39D5013AB30AA31A9328F8219
:0D0EA40075830012007F2EFE0F80E8AF0660
:010EB100221E
:03101800D2B2222F
:03101B00C2B2223C
:0A100E00C2998F993099FDC2992212
:080E66008B338A348935AE0795
:100E6E00E4FDEDC39E5018AB330535E535AA34705D
:0F0E7E0002053414F9120066FF12100E0D80E306
:010E8D002242
:03000000020B29C7
:0C0B2900787FE4F6D8FD7581B5020B70F2
:10006600BB010689828A83E0225002E722BBFE0298
:09007600E32289828A83E49322CB
:10007F00BB010CE58229F582E5833AF583E0225036
:10008F0006E92582F8E622BBFE06E92582F8E22280
:0D009F00E58229F582E5833AF583E493229A
:1000AC00BC000BBE0029EF8DF084FFADF022E4CC38
:1000BC00F875F008EF2FFFEE33FEEC33FCEE9DEC01
:1000CC00984005FCEE9DFE0FD5F0E9E4CEFD22ED47
:1000DC00F8F5F0EE8420D21CFEADF075F008EF2F91
:1000EC00FFED33FD4007985006D5F0F222C398FD82
:0500FC000FD5F0EA221F
:10010100BB0110E58229F582E5833AF583E0F5F03C
:10011100A3E0225009E92582F886F008E622BBFE19
:100121000AE92582F8E2F5F008E222E5832AF5835F
:08013100E993F5F0A3E9932224
:1001390075F008758200EF2FFFEE33FECD33CDCC7D
:1001490033CCC58233C5829BED9AEC99E582984000
:100159000CF582EE9BFEED9AFDEC99FC0FD5F0D6DD
:10016900E4CEFBE4CDFAE4CCF9A88222B800C1B907
:100179000059BA002DEC8BF084CFCECDFCE5F0CB45
:10018900F97818EF2FFFEE33FEED33FDEC33FCEB7E
:1001990033FB10D703994004EB99FB0FD8E5E4F939
:1001A900FA227818EF2FFFEE33FEED33FDEC33FC26
:1001B900C933C910D7059BE99A4007EC9BFCE99A1A
:1001C900F90FD8E0E4C9FAE4CCFB2275F010EF2F5F
:1001D900FFEE33FEED33FDCC33CCC833C810D7075F
:1001E9009BEC9AE899400AED9BFDEC9AFCE899F89A
:0E01F9000FD5F0DAE4CDFBE4CCFAE4C8F9222D
:10020700EB9FF5F0EA9E42F0E99D42F0E89C45F04D
:0102170022C4
:10021800E8600FECC313FCED13FDEE13FEEF13FFC4
:03022800D8F122E8
:10022B00BB010DE58229F582E5833AF5830202686D
:10023B005007E92582F802025BBBFE07E92582F82D
:10024B00020274E58229F582E5833AF58302028185
:100B350002086DE493A3F8E493A34003F68001F261
:100B450008DFF48029E493A3F85407240CC8C333C1
:100B5500C4540F4420C8834004F456800146F6DF90
:100B6500E4800B0102040810204080900FCCE47E45
:100B7500019360BCA3FF543F30E509541FFEE49385
:100B8500A360010ECF54C025E060A840B8E493A34C
:100B9500FAE493A3F8E493A3C8C582C8CAC583CA77
:100BA500F0A3C8C582C8CAC583CADFE9DEE780BE2F
:010FDB000015
:0D025B00E6FB08E6F908E6FA08E6CBF82213
:0C026800E0F8A3E0F9A3E0FAA3E0FB2219
:0D027400E2FB08E2F908E2FA08E2CBF8220A
:10028100E493F8740193F9740293FA740393FB22D3
:00000001FF
