:0A0FA6007E187D55DDFEDEFCDFF64F
:010FB000221E
:0C000E0000007E03DEFEAE071FEE70F463
:01001A0022C3
:0E0F970000007F6D7EC87DC7DDFEDEFCDFFA48
:010FA5002229
:0600030090000102007FE5
:1003CC00EFD3940540037F0122120066FED3940301
:1003DC0040037F0222EF7035EE7008120003F452D6
:1003EC00935294120066B401081200034293F45223
:1003FC0094120066FEB4020712000342934294EE7C
:10040C00B4030A120003FEF45293EE4294EF64011B
:10041C007037120066FE7008120003F4529152926B
:10042C00EEB401081200034291F45292120066B429
:10043C00020712000342914292120066B4030A12A0
:10044C000003FEF45291EE4292EF640270371200F8
:10045C0066FE7008120003F452955296EEB4010831
:10046C001200034295F45296120066B40207120071
:10047C000342954296120066B4030A120003FEF47E
:10048C005295EE4296EF64037037120066FE7008C8
:10049C00120003F452B152B2EEB40108120003423E
:1004AC00B1F452B2120066B4020712000342B14218
:1004BC00B2120066B4030A120003FEF452B1EE420B
:1004CC00B2EF64047037120066FE7008120003F479
:1004DC0052B352B4EEB4010812000342B3F452B456
:1004EC00120066B4020712000342B342B412006653
:1004FC00B4030A120003FEF452B3EE42B4EF6405E7
:10050C007037120066FF7008120003F452C952CA09
:10051C00EFB4010812000342C9F452CA120066B4C7
:10052C00020712000342C942CA120066B4030A123F
:0C053C000003FFF452C9EF42CA7F002206
:100BEE005B54696D654F75745D2057616974204D56
:100BFE006F6E746F72203C3D3D3D2074696D656F64
:100C0E0075742035205365632E004F5645525F563E
:100C1E004F4C544147450D0A004C4F53535F564FAE
:100C2E004C544147450D0A00554E4445525F564FB0
:100C3E004C544147450D0A004E4F524D414C5F56A4
:090C4E004F4C544147450D0A00CA
:100F27000125FF011FFF0122FF0223FFFF012111FE
:030F37000120FF97
:100F7400EFFDD3E5249DE52394002274FFF523F5CA
:020F8400242225
:100DCF00750B40750C02E4F510750F96F50EF50DC9
:100DDF00751201F513751401F515F516F517FB7A54
:080DEF0000790B7F01020548A9
:100E8500E4F50B750C01750D01750E01F50F751067
:100E9500637511C0751201FB7A00790BFF0206C25A
:100B1300750C03120B6B750C38120B6B750C04E41C
:100B2300F50B7F01120B7A750C30750B017B007A84
:100B330000790B7F051203CC750CC0120B5D750C8D
:100B430004120B5D750C08E4F50B7F03120B7AD2CC
:090B5300B7D2B6C2B2D292D2B3FD
:100B5C0022E4F50BFB7A00790B7F031203CC227590
:100B6C000B017B007A00790B7F011203CC22FB7AFC
:070B7C0000790B1203CC22EB
:100EA500750B08E4F50C750D01750E01F50FF510C0
:0D0EB500FB7A00790B120D0C7F01020FB1CA
:100F6200E4F523F524D3E5249FE5239E40F7120FF1
:020F72007F22DC
:100EC200E4F523F52430CC0E120F7440F87BFF7A40
:0A0ED2000B79EE120F4F120F7F2272
:100EDC00E4F523F52430CD0E120F7440F87BFF7A25
:0A0EEC000B79EE120F4F120F7F2258
:10081800E4F508F509F50AC2AF120E85120DCF12DC
:100828000B13120EA5D2AF12001EE4F508120D9F8D
:100838008E098F0AC3E5099403400B7521107BFFCD
:100848007A0C79188030D3E50A94ECE509940150C4
:100858001CE50A4509700B7521117BFF7A0C792775
:1008680080147521017BFF7A0C79368009E4F52123
:100878007BFF7A0C7946120F4FE4F509F50AE5215A
:10088800604DE525B4FF03E4F525E521B4010AE54B
:1008980022B4FF05E4F522800DE521B41008E51F18
:1008A800B4FF03E4F51F20CD0AE520F47003020825
:1008B800328027E520640160077F01120D5F8F20D9
:1008C8007FFA120EDCE520F47003020832800B2058
:1008D800CC12E520F470030208327FFF120D5F8FFF
:1008E8002002083230910AE520640160117F0180FE
:1008F80008E520641060077F10120D5F8F207FFAD3
:10090800120EC2E520F470030208327FFF120D5F59
:050918008F20020832EF
:03000B0002091DCA
:10091D00C0E0C0D053C17F43C110D3E52494E8E5B6
:10092D0023940350080524E52470020523E525F4DE
:10093D00602B0525E525C39405500BE525C39400D3
:10094D004004C2B38017E525C3940A500BE525C3B7
:10095D0094054004D2B380057525FFD2B3E51FF48D
:10096D00602B051FE51FC39419500BE51FC39400A1
:10097D004004C2928017E51FC39432500BE51FC38C
:10098D0094194004D2928005D292751FFFE522F48E
:10099D00604F0522E522C3940F500BE522C394004E
:1009AD004004C292803BE522C39414500BE522C350
:1009BD00940F4004D2928029E522C39423500BE575
:1009CD0022C394144004C2928017E522C394875029
:1009DD000BE522C394234004D2928005D292752256
:0609ED00FFD0D0D0E03283
:100E43004EF58990000302007F9000050200AC90EC
:100E5300000202007F90000402007F90000702005E
:010E63007F0F
:03001B00020009D7
:0100090032C4
:0300630002000A8E
:01000A0032C3
:1006C200AD07EDD3940240037F0122ED706EC28C20
:1006D200120E52B40104D2A98002C2A990000112E2
:1006E200007FB40104D2B98002C2B9120066FED3FF
:1006F200940340037F0222E58954FC120E43FFB4A7
:100702000103538E7FEF7003438E80EFB4020543E3
:10071200890480035389FB120E58B40105438F01EB
:100722008003538FFE120E4CE5F0F58C120E4CF541
:100732008A120E5EB40102D28C7F0022ED64017037
:100742006EC28E120E52B40104D2AB8002C2AB90C2
:10075200000112007FB40104D2BB8002C2BB1200AE
:1007620066FEC3940340037F0222E58954CF120E32
:1007720043FFB40103538EBFEF7003438E40EFB4C7
:10078200020543894080035389BF120E58B4010504
:10079200438F028003538FFD120E4CE5F0F58D124C
:1007A2000E4CF58B120E5EB40102D28E7F0022ED4A
:1007B2006402705F538EEF120E52B4010543AF0410
:1007C200800353AFFB120E46FED3940240037F0216
:1007D20022EEB40103538EFB120E467003438E04C5
:1007E200120E46B40205438E088003538EF7120E92
:1007F20058B40105438F048003538FFB120E4CFD46
:10080200ACF0ECF5D68DD7120E5EB40103438E1018
:060812007F00227F02229C
:100F3B00AF1EAE1DAD1CAC1B78080201C3AB18AACB
:040F4B0019A91A22A4
:060548008B188A19891AC4
:10054E00EF640160030206BF752601F527F528F555
:10055E0029F52AF52BF52C7F407879E4F608DFFC97
:10056E007F407839E4F608DFFC120F48120066D39C
:10057E0094C040037F012290000A12007FB4010450
:10058E00D2BC8002C2BC120066FFE598543F4FF504
:10059E0098EF64C06008EF64406003020649900063
:1005AE00021201D67F807E8D7D5B7C001201208F32
:1005BE001E8E1D8D1C8C1BE4FFFE7D01FCAB1EAA46
:1005CE001DA91CA81BC31201B240037F0222C3E463
:1005DE00951EF51EE4951DF51D7401951CF51CE484
:1005EE00951BF51B120F4890000112007FFB640152
:1005FE007022C28E538EFE5389BF5389CF438E40D5
:10060E00120F3B8F8D851E8BC2AB5389BF538FFD4F
:10061E00D28E8058EB6402701F538EEF438E0153BF
:10062E008EF7438E04120F3B8FD6851ED753AFFB2A
:10063E00538EF7438E1080347F0222120F48120021
:10064E0066FF701390000812007FB40105438E20E0
:10065E00801A538EDF8015EFB480119000081200BF
:10066E007FB40105438780800353877F120F489024
:10067E00000912007FB40104D2AC8002C2AC90001B
:10068E000712007FB40104D29C8002C29C90000B22
:10069E0012007F54C0FFE5A2543F4FF5A290000C0C
:1006AE0012007FB4010543971080035397EF7F002C
:0306BE00227F0395
:0106C1002216
:100E6400E52970FC74792528F8A6070528E528C328
:100E740094404003E4F528E5297005752901D299C9
:010E8400224B
:100F4F00120066FF600C120E64740129F9E43AFA7C
:030F5F0080EE22FF
:03002300020CB418
:100CB400C0E0C0D075D000C000C00730981DC298F5
:100CC400E52C7017E52AC394404003752A00AF2A27
:100CD400052A74392FF8A699752B05309921C299E4
:100CE400E5276528601674792527F8E6F599052720
:100CF400E527C3944040087527008003752900D078
:080D040007D000D0D0D0E0328E
:10023C0053797374656D20656E7465727920506F97
:10024C0077657220446F776E206D6F6465202E2E5B
:10025C002E0D0A0D0A00436F6C6420726573657471
:10026C002C2064656C617920347320656E74657222
:10027C00792073797374656D202E2E2E0D0A005B18
:10028C004D6F746F72207374617475735D203D3D96
:10029C003D3E200D0A005B4D6F746F7220737461CC
:1002AC007475735D203C3D3D3D200D0A005B4D6F28
:1002BC00746F72207374617475735D2053746F70F6
:1002CC002E0D0A0D0A000D0A002A00200020202005
:1002DC002020202020BAFEB1B1CAA2BCD1B5E7C6FD
:1002EC00F7C9E8B1B8D3D0CFDEB9ABCBBE202D2047
:1002FC00D6C7C4DCD7D4B6AFBACFD5A2BFD8D6C672
:10030C00CFB5CDB30D0A00202056657273696F6EA0
:10031C00204E6F2E2020203A2056657220312E3030
:10032C000D0A00202044657369676E65642054696A
:10033C006D65203A20323031362D30332D32310D6F
:10034C000A00202054656C6570686F6E6520202053
:10035C0020203A20303237202D20383335323030BF
:10036C003636202F2038333536373037370D0A00E4
:10037C002020202020202020416C6C20726967688E
:10038C0074732072657365727665642028632932F4
:10039C003031362020687474703A2F2F7777772E8F
:1003AC00736A64712E636F6D2F0D0A00300031007B
:1003BC003200330034003500360037003800390085
:04001E0075C13A224C
:100EF6007BFF7A02793C120F4FD2001200000000ED
:090F0600004387020000000022F4
:100F0F00E58730E4117BFF7A027962120F4F120FDF
:080F1F00975387EFD322C32290
:100F8600E5C730E60353C73FE5C720E50343C7601F
:010F96002238
:020D5F008F0BF8
:100D6100750CFFE50BB4010FC2B7D2B6750C017B50
:100D7100FF7A02798B8021E50BB4100FD2B7C2B68E
:100D8100750C107BFF7A0279A2800DD2B7D2B675AD
:0D0D91000CFF7BFF7A0279B9120F4FAF0CF7
:010D9E002232
:08002E008B2D8A2E892F8D30E5
:10003600E4F531E530D394004020E4F531E531C3F1
:100046009530500DAB2DAA2EA92F120F4F053180DA
:0A005600EC7BFF7A0279D2120F4F03
:01006000227D
:100B83007BFF7A0279D57D3E12002E120BE27A02A8
:100B930079D9120BCF7A0279D77D0112002E7BFF10
:100BA3007A037913120F4F7BFF7A03792F120F4FBA
:100BB3007A03794E120BCF7A03797C120F4F120B03
:100BC300E27BFF7A0279D57D3E02002E7BFF120F76
:100BD3004F7BFF7A0279D77D0112002E7BFF227BA8
:0B0BE300FF7A0279D77D0112002E225C
:1009F3008F38E53870097BFF7A0379B8120F4FE51A
:100A030038B401097BFF7A0379BA120F4FE538B482
:100A130002097BFF7A0379BC120F4FE538B403094F
:100A23007BFF7A0379BE120F4FE538B404097BFFCD
:100A33007A0379C0120F4FE538B405097BFF7A03B7
:100A430079C2120F4FE538B406097BFF7A0379C4E4
:100A5300120F4FE538B407097BFF7A0379C6120FEB
:100A63004FE538B408097BFF7A0379C8120F4FE5C5
:100A7300387BFFB409067A0379CA80047A0279D7EE
:040A8300120F4F22DD
:100D9F00E4FEF50BF50C750D13750E887F03120C21
:100DAF0057C3EF950CEE950B40048E0B8F0CE50E91
:0F0DBF00150EAC0D7002150D4C70E1AE0BAF0CA4
:010DCE002202
:100D0C00120066F59D90000112007FFFE5BC549F18
:100D1C004FF5BC90000212007FB4010543BC8080EB
:100D2C000353BC7F90000312007FB401054397204E
:100D3C0080035397DF90000512007FB40104D2ADFD
:100D4C008002C2AD90000412007FB40103D2BD2218
:030D5C00C2BD22F3
:0B0FB100BF010443BC802253BC7F2220
:100C5700EFD3940740028050E4F5BDF5BEE5BC54E0
:100C6700E044084FF5BC00000000E4FBE5BC30E4BD
:100C77003353BCEFE59730E509E5BD5403ADBEFC42
:100C8700801DAFBD7C00AD07ED7E007802C333CE7B
:100C970033CED8F9FFE5BE5403FDEEFCEF4DFDAFB3
:0C0CA70005AE04220BBBFAC47E047F00E3
:010CB300221E
:03002B00020026AA
:0400260053BCEF32A6
:060E1F008B328A33893496
:100E2500E4FFFEEFC39D5013AB32AA33A9348F8282
:0D0E350075830012007F2EFE0F80E8AF06CF
:010E4200228D
:030FC600D2B22282
:030FC900C2B2228F
:0A0FBC00C2998F993099FDC2992265
:080DF7008B358A368937AE07FF
:100DFF00E4FDEDC39E5018AB350537E537AA3670C5
:0F0E0F0002053614F9120066FF120FBC0D80E3C6
:010E1E0022B1
:03000000020A876A
:0C0A8700787FE4F6D8FD7581B8020ACE35
:10006600BB010689828A83E0225002E722BBFE0298
:09007600E32289828A83E49322CB
:10007F00BB010CE58229F582E5833AF583E0225036
:10008F0006E92582F8E622BBFE06E92582F8E22280
:0D009F00E58229F582E5833AF583E493229A
:1000AC00BB0110E58229F582E5833AF583E0F5F092
:1000BC00A3E0225009E92582F886F008E622BBFE6F
:1000CC000AE92582F8E2F5F008E222E5832AF583B5
:0800DC00E993F5F0A3E993227A
:1000E40075F008758200EF2FFFEE33FECD33CDCCD3
:1000F40033CCC58233C5829BED9AEC99E582984056
:100104000CF582EE9BFEED9AFDEC99FC0FD5F0D632
:10011400E4CEFBE4CDFAE4CCF9A88222B800C1B95C
:100124000059BA002DEC8BF084CFCECDFCE5F0CB9A
:10013400F97818EF2FFFEE33FEED33FDEC33FCEBD3
:1001440033FB10D703994004EB99FB0FD8E5E4F98E
:10015400FA227818EF2FFFEE33FEED33FDEC33FC7B
:10016400C933C910D7059BE99A4007EC9BFCE99A6F
:10017400F90FD8E0E4C9FAE4CCFB2275F010EF2FB4
:10018400FFEE33FEED33FDCC33CCC833C810D707B4
:100194009BEC9AE899400AED9BFDEC9AFCE899F8EF
:0E01A4000FD5F0DAE4CDFBE4CCFAE4C8F92282
:1001B200EB9FF5F0EA9E42F0E99D42F0E89C45F0A3
:0101C200221A
:1001C300E8600FECC313FCED13FDEE13FEEF13FF1A
:0301D300D8F1223E
:1001D600BB010DE58229F582E5833AF58302021318
:1001E6005007E92582F8020206BBFE07E92582F8D8
:1001F60002021FE58229F582E5833AF58302022C85
:100A9300020818E493A3F8E493A34003F68001F259
:100AA30008DFF48029E493A3F85407240CC8C33364
:100AB300C4540F4420C8834004F456800146F6DF33
:100AC300E4800B0102040810204080900F27E47E8D
:100AD300019360BCA3FF543F30E509541FFEE49328
:100AE300A360010ECF54C025E060A840B8E493A3EF
:100AF300FAE493A3F8E493A3C8C582C8CAC583CA1A
:100B0300F0A3C8C582C8CAC583CADFE9DEE780BED1
:010F3A0000B6
:0D020600E6FB08E6F908E6FA08E6CBF82268
:0C021300E0F8A3E0F9A3E0FAA3E0FB226E
:0D021F00E2FB08E2F908E2FA08E2CBF8225F
:10022C00E493F8740193F9740293FA740393FB2228
:00000001FF
