:0A10A1007E187D55DDFEDEFCDFF653
:0110AB002222
:0C000E0000007E03DEFEAE071FEE70F463
:01001A0022C3
:0E10920000007F6D7EC87DC7DDFEDEFCDFFA4C
:0110A000222D
:0600030090000102007FE5
:1005A600EFD3940540037F0122120066FED3940325
:1005B60040037F0222EF7035EE7008120003F452FA
:1005C600935294120066B401081200034293F45247
:1005D60094120066FEB4020712000342934294EEA0
:1005E600B4030A120003FEF45293EE4294EF640140
:1005F6007037120066FE7008120003F45291529290
:10060600EEB401081200034291F45292120066B44D
:10061600020712000342914292120066B4030A12C4
:100626000003FEF45291EE4292EF6402703712001C
:1006360066FE7008120003F452955296EEB4010855
:100646001200034295F45296120066B40207120095
:100656000342954296120066B4030A120003FEF4A2
:100666005295EE4296EF64037037120066FE7008EC
:10067600120003F452B152B2EEB401081200034262
:10068600B1F452B2120066B4020712000342B1423C
:10069600B2120066B4030A120003FEF452B1EE422F
:1006A600B2EF64047037120066FE7008120003F49D
:1006B60052B352B4EEB4010812000342B3F452B47A
:1006C600120066B4020712000342B342B412006677
:1006D600B4030A120003FEF452B3EE42B4EF64050B
:1006E6007037120066FF7008120003F452C952CA2E
:1006F600EFB4010812000342C9F452CA120066B4EC
:10070600020712000342C942CA120066B4030A1263
:0C0716000003FFF452C9EF42CA7F00222A
:100BF4005B54696D654F75745D2057616974204D50
:100C04006F6E746F72203C3D3D3D2074696D656F5D
:100C140075742035205365632E004D617820566F1E
:100C24006C743A200020202D2D2D2020004F564595
:100C3400525F564F4C544147450D0A004C4F535395
:100C44005F564F4C544147450D0A00554E4445529A
:100C54005F564F4C544147450D0A004E4F524D418B
:0C0C64004C5F564F4C544147450D0A00B0
:101034000125FF011FFF0122FF0223FFFF012111F0
:031044000120FF89
:100FEA00AE09AF0A0200ACEFFDD3E5249DE52394D8
:090FFA00002274FFF523F5242206
:100EC300750B40750C02E4F510750F96F50EF50DD4
:100ED300751201F513751401F515F516F517FB7A5F
:080EE30000790B7F01020722D8
:100F7900E4F50B750C01750D01750E01F50F751072
:100F8900637511C0751201FB7A00790BFF02089C89
:100C7000750C03120CC8750C38120CC8750C04E402
:100C8000F50B7F01120CD7750C30750B017B007AC8
:100C900000790B7F051205A6750CC0120CBA750CF5
:100CA00004120CBA750C08E4F50B7F03120CD7D2B2
:090CB000B7D2B6C2B2D292D2B39F
:100CB90022E4F50BFB7A00790B7F031205A6227556
:100CC9000B017B007A00790B7F011205A622FB7AC2
:070CD90000790B1205A622B1
:100F9900750B08E4F50C750D01750E01F50FF510CB
:0D0FA900FB7A00790B120E007F010210ACE4
:10106F00E4F523F524D3E5249FE5239E40F7120FE3
:02107F00FC2251
:100FB600E4F523F52430CC0E120FF140F87BFF7ACE
:0A0FC6000B79F412105C120FFC22EC
:100FD000E4F523F52430CD0E120FF140F87BFF7AB3
:0A0FE0000B79F412105C120FFC22D2
:10042100E4F508F509F50AC2AF120F79120EC312ED
:100431000C70120F99D2AF12001E120E93EF250A03
:10044100F50AEE3509F509AF080508EFC3940A501E
:100451000280E7AD087C00120FEA8E098F0AE4F5ED
:10046100087BFF7A0C791E12105C7C037DE8120F69
:10047100EA7C007D0A1200ACAF05120AD4AE09AFC6
:100481000A7C007D641200AC120586120586AF0558
:10049100120AD47BFF7A0C792912105CC3E50A9405
:1004A100BCE5099403400B7521107BFF7A0C79316F
:1004B1008030D3E50A9434E5099403501CE50A45DC
:1004C10009700B7521117BFF7A0C7940801475211D
:1004D100017BFF7A0C794F8009E4F5217BFF7A0CCF
:1004E100795F12105CE4F509F50AE521604EE4F547
:1004F10025E521B40105E4F5228008E521B41003C6
:10050100E4F51F20CD07E520F460278022E5216472
:100511001160057F321210A1E520640160077F019F
:10052100120E538F207FFA120FD0E520F4600312D0
:10053100059E7FF47E0112106F02043B20CC0EE574
:1005410020F4700302043B12059E02043B30910A21
:10055100E520640160117F018008E52064106007D7
:100561007F10120E538F207FFA120FB67F047E0088
:1005710012106FE520F4700302043B7FFF120E534B
:050581008F2002043B85
:100586007C007D0A1200ACAF05120AD4AE09AF0A90
:100596007C007D0A1200AC227FFF120E538F2022B0
:03000B000209F2F5
:1009F200C0E0C0D075D000C00753C17F43C110D33F
:100A0200E52494E8E523940350080524E5247002C4
:100A12000523E525F46011C2B3AF250525EFC39484
:100A22000540057525FFD2B3E51FF46011C292AFF0
:100A32001F051FEFD394194005751FFFD292E522BF
:100A4200F47003020ACD0522E522C3940F500BE590
:100A520022C394004004C2928071E522C3941450D0
:100A62000BE522C3940F4004D292805FE522C39427
:100A720023500BE522C394144004C292804DE52218
:100A8200C39487500BE522C394234004D292803B47
:100A9200E522C39496500BE522C394874004C29288
:100AA2008029E522C3949B500BE522C3949640040F
:100AB200D2928017E522C394AA500BE522C3949BDD
:100AC2004004C2928005D2927522FFD007D0D0D0C6
:020AD200E03210
:100F37004EF58990000302007F90000502010190A1
:100F4700000202007F90000402007F900007020069
:010F57007F1A
:03001B00020009D7
:0100090032C4
:0300630002000A8E
:01000A0032C3
:10089C00AD07EDD3940240037F0122ED706EC28C44
:1008AC00120F46B40104D2A98002C2A99000011211
:1008BC00007FB40104D2B98002C2B9120066FED323
:1008CC00940340037F0222E58954FC120F37FFB4D6
:1008DC000103538E7FEF7003438E80EFB402054308
:1008EC00890480035389FB120F4CB40105438F011B
:1008FC008003538FFE120F40E5F0F58C120F40F57C
:10090C008A120F52B40102D28C7F0022ED64017066
:10091C006EC28E120F46B40104D2AB8002C2AB90F1
:10092C00000112007FB40104D2BB8002C2BB1200D2
:10093C0066FEC3940340037F0222E58954CF120F55
:10094C0037FFB40103538EBFEF7003438E40EFB4F7
:10095C00020543894080035389BF120F4CB4010533
:10096C00438F028003538FFD120F40E5F0F58D127B
:10097C000F40F58B120F52B40102D28E7F0022ED84
:10098C006402705F538EEF120F46B4010543AF043F
:10099C00800353AFFB120F3AFED3940240037F0245
:1009AC0022EEB40103538EFB120F3A7003438E04F4
:1009BC00120F3AB40205438E088003538EF7120FC0
:1009CC004CB40105438F048003538FFB120F40FD81
:1009DC00ACF0ECF5D68DD7120F52B40103438E1048
:0609EC007F00227F0222C1
:10104800AF1EAE1DAD1CAC1B7808020218AB18AA67
:0410580019A91A2296
:060722008B188A19891AE8
:10072800EF64016003020899752601F527F528F59D
:1007380029F52AF52BF52C7F407878E4F608DFFCBC
:100748007F407838E4F608DFFC121055120066D3B3
:1007580094C040037F012290000A12007FB4010474
:10076800D2BC8002C2BC120066FFE598543F4FF528
:1007780098EF64C06008EF644060030208239000AB
:100788000212022B7F807E8D7D5B7C001201758FAB
:100798001E8E1D8D1C8C1BE4FFFE7D01FCAB1EAA6A
:1007A8001DA91CA81BC312020740037F0222C3E431
:1007B800951EF51EE4951DF51D7401951CF51CE4A8
:1007C800951BF51B12105590000112007FFB640168
:1007D8007022C28E538EFE5389BF5389CF438E40F9
:1007E8001210488F8D851E8BC2AB5389BF538FFD66
:1007F800D28E8058EB6402701F538EEF438E0153E4
:100808008EF7438E041210488FD6851ED753AFFB40
:10081800538EF7438E1080347F0222121055120037
:1008280066FF701390000812007FB40105438E2004
:10083800801A538EDF8015EFB480119000081200E3
:100848007FB40105438780800353877F121055903A
:10085800000912007FB40104D2AC8002C2AC90003F
:100868000712007FB40104D29C8002C29C90000B46
:1008780012007F54C0FFE5A2543F4FF5A290000C30
:1008880012007FB4010543971080035397EF7F0050
:03089800227F03B9
:01089B00223A
:100F5800E52970FC74782528F8A6070528E528C334
:100F680094404003E4F528E5297005752901D299D4
:010F78002256
:10105C00120066FF600C120F58740129F9E43AFA79
:03106C0080EE22F1
:03002300020DA823
:100DA800C0E0C0D075D000C000C00730981DC29800
:100DB800E52C7017E52AC394404003752A00AF2A32
:100DC800052A74382FF8A699752B05309921C299F0
:100DD800E5276528601674782527F8E6F59905272C
:100DE800E527C3944040087527008003752900D083
:080DF80007D000D0D0D0E0329A
:1002910053797374656D20656E7465727920506F42
:1002A10077657220446F776E206D6F6465202E2E06
:1002B1002E0D0A0D0A00436F6C642072657365741C
:1002C1002C2064656C617920347320656E746572CD
:1002D100792073797374656D202E2E2E0D0A005BC3
:1002E1004D6F746F72207374617475735D203D3D41
:1002F1003D3E200D0A005B4D6F746F722073746177
:100301007475735D203C3D3D3D200D0A005B4D6FD2
:10031100746F72207374617475735D2053746F70A0
:100321002E0D0A0D0A000D0A002A002000202020AF
:100331002020202020BAFEB1B1CAA2BCD1B5E7C6A7
:10034100F7C9E8B1B8D3D0CFDEB9ABCBBE202D20F1
:10035100D6C7C4DCD7D4B6AFBACFD5A2BFD8D6C61C
:10036100CFB5CDB30D0A00202056657273696F6E4B
:10037100204E6F2E2020203A2056657220312E30DB
:100381000D0A00202044657369676E656420546915
:100391006D65203A20323031362D30332D32310D1A
:1003A1000A00202054656C6570686F6E65202020FE
:1003B10020203A20303237202D203833353230306A
:1003C1003636202F2038333536373037370D0A008F
:1003D1002020202020202020416C6C207269676839
:1003E100747320726573657276656420286329329F
:1003F1003031362020687474703A2F2F7777772E3A
:10040100736A64712E636F6D2F0D0A003000310025
:10041100320033003400350036003700380039002F
:04001E0075C13A224C
:101003007BFF7A02799112105CD20012000000007B
:09101300004387020000000022E6
:10101C00E58730E4117BFF7A0279B712105C12106D
:08102C00925387EFD322C32287
:10108100E5C730E60353C73FE5C720E50343C76023
:01109100223C
:020E53008F0B03
:100E5500750CFFE50BB4010FC2B7D2B6750C017B5B
:100E6500FF7A0279E08021E50BB4100FD2B7C2B644
:100E7500750C107BFF7A0279F7800DD2B7D2B67563
:0D0E85000CFF7BFF7A03790E12105CAF0C9E
:010E9200223D
:08002E008B2D8A2E892F8D30E5
:10003600E4F531E530D394004020E4F531E531C3F1
:100046009530500DAB2DAA2EA92F12105C053180CC
:0A005600EC7BFF7A03792712105C9F
:01006000227D
:100CE0007BFF7A03792A7D3E12002E120D3F7A0394
:100CF000792E120D2C7A03792C7D0112002E7BFFA8
:100D00007A03796812105C7BFF7A03798412105C95
:100D10007A0379A3120D2C7A0379D112105C120D8B
:100D20003F7BFF7A03792A7D3E02002E7BFF121063
:100D30005C7BFF7A03792C7D0112002E7BFF227BE6
:0B0D4000FF7A03792C7D0112002E22A7
:100AD4008F0BE50B70097BFF7A04790D12105CE52E
:100AE4000BB401097BFF7A04790F12105CE50BB497
:100AF40002097BFF7A04791112105CE50BB4030937
:100B04007BFF7A04791312105CE50BB404097BFFB4
:100B14007A04791512105CE50BB405097BFF7A049D
:100B2400791712105CE50BB406097BFF7A04791976
:100B340012105CE50BB407097BFF7A04791B1210D1
:100B44005CE50BB408097BFF7A04791D12105CE59F
:100B54000B7BFFB409067A04791F80047A03792C8D
:040B640012105C22ED
:100E9300E4FEF50BF50C750D13750E887F03120D2B
:100EA3004BC3EF950CEE950B40048E0B8F0CE50EA8
:0F0EB300150EAC0D7002150D4C70E1AE0BAF0CAF
:010EC200220D
:100E0000120066F59D90000112007FFFE5BC549F23
:100E10004FF5BC90000212007FB4010543BC8080F6
:100E20000353BC7F90000312007FB4010543972059
:100E300080035397DF90000512007FB40104D2AD08
:100E40008002C2AD90000412007FB40103D2BD2223
:030E5000C2BD22FE
:0B10AC00BF010443BC802253BC7F2224
:100D4B00EFD3940740028050E4F5BDF5BEE5BC54EB
:100D5B00E044084FF5BC00000000E4FBE5BC30E4C8
:100D6B003353BCEFE59730E509E5BD5403ADBEFC4D
:100D7B00801DAFBD7C00AD07ED7E007802C333CE86
:100D8B0033CED8F9FFE5BE5403FDEEFCEF4DFDAFBE
:0C0D9B0005AE04220BBBFAC47E047F00EE
:010DA7002229
:03002B00020026AA
:0400260053BCEF32A6
:060F13008B328A338934A1
:100F1900E4FFFEEFC39D5013AB32AA33A9348F828D
:0D0F290075830012007F2EFE0F80E8AF06DA
:010F36002298
:0310C100D2B22286
:0310C400C2B22293
:0A10B700C2998F993099FDC2992269
:080EEB008B358A368937AE070A
:100EF300E4FDEDC39E5018AB350537E537AA3670D0
:0F0F030002053614F9120066FF1210B70D80E3D5
:010F120022BC
:03000000020B6888
:0C0B6800787FE4F6D8FD7581B7020BAF72
:10006600BB010689828A83E0225002E722BBFE0298
:09007600E32289828A83E49322CB
:10007F00BB010CE58229F582E5833AF583E0225036
:10008F0006E92582F8E622BBFE06E92582F8E22280
:0D009F00E58229F582E5833AF583E493229A
:1000AC00BC000BBE0029EF8DF084FFADF022E4CC38
:1000BC00F875F008EF2FFFEE33FEEC33FCEE9DEC01
:1000CC00984005FCEE9DFE0FD5F0E9E4CEFD22ED47
:1000DC00F8F5F0EE8420D21CFEADF075F008EF2F91
:1000EC00FFED33FD4007985006D5F0F222C398FD82
:0500FC000FD5F0EA221F
:10010100BB0110E58229F582E5833AF583E0F5F03C
:10011100A3E0225009E92582F886F008E622BBFE19
:100121000AE92582F8E2F5F008E222E5832AF5835F
:08013100E993F5F0A3E9932224
:1001390075F008758200EF2FFFEE33FECD33CDCC7D
:1001490033CCC58233C5829BED9AEC99E582984000
:100159000CF582EE9BFEED9AFDEC99FC0FD5F0D6DD
:10016900E4CEFBE4CDFAE4CCF9A88222B800C1B907
:100179000059BA002DEC8BF084CFCECDFCE5F0CB45
:10018900F97818EF2FFFEE33FEED33FDEC33FCEB7E
:1001990033FB10D703994004EB99FB0FD8E5E4F939
:1001A900FA227818EF2FFFEE33FEED33FDEC33FC26
:1001B900C933C910D7059BE99A4007EC9BFCE99A1A
:1001C900F90FD8E0E4C9FAE4CCFB2275F010EF2F5F
:1001D900FFEE33FEED33FDCC33CCC833C810D7075F
:1001E9009BEC9AE899400AED9BFDEC9AFCE899F89A
:0E01F9000FD5F0DAE4CDFBE4CCFAE4C8F9222D
:10020700EB9FF5F0EA9E42F0E99D42F0E89C45F04D
:0102170022C4
:10021800E8600FECC313FCED13FDEE13FEEF13FFC4
:03022800D8F122E8
:10022B00BB010DE58229F582E5833AF5830202686D
:10023B005007E92582F802025BBBFE07E92582F82D
:10024B00020274E58229F582E5833AF58302028185
:100B7400020421E493A3F8E493A34003F68001F272
:100B840008DFF48029E493A3F85407240CC8C33382
:100B9400C4540F4420C8834004F456800146F6DF51
:100BA400E4800B0102040810204080901034E47E9D
:100BB400019360BCA3FF543F30E509541FFEE49346
:100BC400A360010ECF54C025E060A840B8E493A30D
:100BD400FAE493A3F8E493A3C8C582C8CAC583CA38
:100BE400F0A3C8C582C8CAC583CADFE9DEE780BEF0
:0110470000A8
:0D025B00E6FB08E6F908E6FA08E6CBF82213
:0C026800E0F8A3E0F9A3E0FAA3E0FB2219
:0D027400E2FB08E2F908E2FA08E2CBF8220A
:10028100E493F8740193F9740293FA740393FB22D3
:00000001FF
