:0A0F41007E187D55DDFEDEFCDFF6B4
:010F4B002283
:0C000E0000007E03DEFEAE071FEE70F463
:01001A0022C3
:0E0F250000007F6D7EC87DC7DDFEDEFCDFFABA
:010F3300229B
:0600030090000102007FE5
:1003CC00EFD3940540037F0122120066FED3940301
:1003DC0040037F0222EF7035EE7008120003F452D6
:1003EC00935294120066B401081200034293F45223
:1003FC0094120066FEB4020712000342934294EE7C
:10040C00B4030A120003FEF45293EE4294EF64011B
:10041C007037120066FE7008120003F4529152926B
:10042C00EEB401081200034291F45292120066B429
:10043C00020712000342914292120066B4030A12A0
:10044C000003FEF45291EE4292EF640270371200F8
:10045C0066FE7008120003F452955296EEB4010831
:10046C001200034295F45296120066B40207120071
:10047C000342954296120066B4030A120003FEF47E
:10048C005295EE4296EF64037037120066FE7008C8
:10049C00120003F452B152B2EEB40108120003423E
:1004AC00B1F452B2120066B4020712000342B14218
:1004BC00B2120066B4030A120003FEF452B1EE420B
:1004CC00B2EF64047037120066FE7008120003F479
:1004DC0052B352B4EEB4010812000342B3F452B456
:1004EC00120066B4020712000342B342B412006653
:1004FC00B4030A120003FEF452B3EE42B4EF6405E7
:10050C007037120066FF7008120003F452C952CA09
:10051C00EFB4010812000342C9F452CA120066B4C7
:10052C00020712000342C942CA120066B4030A123F
:0C053C000003FFF452C9EF42CA7F002206
:100B77005B54696D654F75745D2057616974204DCD
:100B87006F6E746F72203C3D3D3D2074696D656FDB
:100B970075742035205365632E004F5645525F56B6
:100BA7004F4C544147450D0A004C4F53535F564F26
:100BB7004C544147450D0A00554E4445525F564F28
:100BC7004C544147450D0A004E4F524D414C5F561C
:090BD7004F4C544147450D0A0042
:0F0F15000129FF012800012AFF0127110126FFF2
:100D8700750B40750C02E4F510750F96F50EF50D11
:100D9700751201F513751401F515F516F517FB7A9C
:080DA70000790B7F01020548F1
:100D5800750C07750B017B00120D7D750C10E4F501
:100D68000BFB120D7D750CC0E4F50BFB7A00790BBB
:050D78007F030203CC23
:0A0D7D007A00790B7F011203CC22EB
:100E3D00E4F50B750C01750D01750E01F50F7510AF
:100E4D00637511C0751201FB7A00790BFF0206C2A2
:100E5D00750B08E4F50C750D01750E01F50FF51008
:0D0E6D00FB7A00790B120C957F01020F4CEF
:0D0F3400E4F52AE52AD39F40FA752AFF2232
:100E7A00E4F52A30CC0FE52AD39F40F77BFF7A0BA3
:090E8A007977120EF1752AFF229E
:100E9300E4F52A30CD0FE52AD39F40F77BFF7A0B89
:090EA3007977120EF1752AFF2285
:10081800E4F508F509F50AC2AF120D58120D871252
:100828000E3D120E5DD2AF12001EB295120D288E2B
:10083800098F0AC3E50A94BCE5099403400B7527A0
:10084800107BFF7A0B79A18030D3E50A9434E5094F
:100858009403501CE50A4509700B7527117BFF7A34
:100868000B79B080147527017BFF7A0B79BF80095B
:10087800E4F5277BFF7A0B79CF120EF1E4F509F541
:100888000AE527602E20CD07E526F460628059E549
:1008980027641160057F32120F41E5266401600765
:1008A8007F01120CE88F267F64120E93E526F46010
:1008B8003E8035B29420CC07E526F460328029309A
:1008C800910AE526640160117F018008E52664101D
:1008D80060077F10120CE88F267F64120E7A7F045F
:1008E800120F34E526F460077FFF120CE88F2612FA
:0808F800090012090002083298
:0B0900007FFA120F417FFA120F412214
:03000B0002090BDC
:10090B00C0E0C0D053C17F43C110E52AD394C85077
:10091B0002052AE5287012D292D2B3E529F47003AE
:10092B000209E77529FF0209E70529E529D3940593
:10093B004004D2B38002C2B3E5276401600302090D
:10094B00D5E529C3940F500BE52994004005C292BD
:10095B000209E7E529C39414500BE529C3940F4012
:10096B0004D2928077E529C39423500BE529C394D5
:10097B00144004C2928065E529C39487500BE52986
:10098B00C394234004D2928053E529C39496500B11
:10099B00E529C394874004C2928041E529C3949B07
:1009AB00500BE529C394964004D292802FE529C3BE
:1009BB0094AA500BE529C3949B4004C292801DE579
:1009CB0029C394AF4016C2928012E527B4100DE5EF
:1009DB0029D394194004D2928002C292D0D0D0E095
:0109EB0032D9
:100DFB004EF58990000302007F9000050200AC9035
:100E0B00000202007F90000402007F9000070200A6
:010E1B007F57
:03001B00020009D7
:0100090032C4
:0300630002000A8E
:01000A0032C3
:1006C200AD07EDD3940240037F0122ED706EC28C20
:1006D200120E0AB40104D2A98002C2A9900001122A
:1006E200007FB40104D2B98002C2B9120066FED3FF
:1006F200940340037F0222E58954FC120DFBFFB4F0
:100702000103538E7FEF7003438E80EFB4020543E3
:10071200890480035389FB120E10B40105438F0133
:100722008003538FFE120E04E5F0F58C120E04F5D1
:100732008A120E16B40102D28C7F0022ED6401707F
:100742006EC28E120E0AB40104D2AB8002C2AB900A
:10075200000112007FB40104D2BB8002C2BB1200AE
:1007620066FEC3940340037F0222E58954CF120D33
:10077200FBFFB40103538EBFEF7003438E40EFB40F
:10078200020543894080035389BF120E10B401054C
:10079200438F028003538FFD120E04E5F0F58D1294
:1007A2000E04F58B120E16B40102D28E7F0022EDDA
:1007B2006402705F538EEF120E0AB4010543AF0458
:1007C200800353AFFB120DFEFED3940240037F025F
:1007D20022EEB40103538EFB120DFE7003438E040E
:1007E200120DFEB40205438E088003538EF7120EDB
:1007F20010B40105438F048003538FFB120E04FDD6
:10080200ACF0ECF5D68DD7120E16B40103438E1060
:060812007F00227F02229C
:100EDD00AF1EAE1DAD1CAC1B78080201C3AB18AA2A
:040EED0019A91A2203
:060548008B188A19891AC4
:10054E00EF640160030206BF751F01F520F521F56A
:10055E0022F523F524F5257F407877E4F608DFFCB5
:10056E007F407837E4F608DFFC120EEA120066D3FD
:10057E0094C040037F012290000A12007FB4010450
:10058E00D2BC8002C2BC120066FFE598543F4FF504
:10059E0098EF64C06008EF64406003020649900063
:1005AE00021201D67F807E8D7D5B7C001201208F32
:1005BE001E8E1D8D1C8C1BE4FFFE7D01FCAB1EAA46
:1005CE001DA91CA81BC31201B240037F0222C3E463
:1005DE00951EF51EE4951DF51D7401951CF51CE484
:1005EE00951BF51B120EEA90000112007FFB6401B1
:1005FE007022C28E538EFE5389BF5389CF438E40D5
:10060E00120EDD8F8D851E8BC2AB5389BF538FFDAE
:10061E00D28E8058EB6402701F538EEF438E0153BF
:10062E008EF7438E04120EDD8FD6851ED753AFFB89
:10063E00538EF7438E1080347F0222120EEA120080
:10064E0066FF701390000812007FB40105438E20E0
:10065E00801A538EDF8015EFB480119000081200BF
:10066E007FB40105438780800353877F120EEA9083
:10067E00000912007FB40104D2AC8002C2AC90001B
:10068E000712007FB40104D29C8002C29C90000B22
:10069E0012007F54C0FFE5A2543F4FF5A290000C0C
:1006AE0012007FB4010543971080035397EF7F002C
:0306BE00227F0395
:0106C1002216
:100E1C00E52270FC74772521F8A6070521E521C38E
:100E2C0094404003E4F521E5227005752201D29926
:010E3C002293
:100EF100120066FF600C120E1C740129F9E43AFA23
:030F010080EE225D
:03002300020C3D8F
:100C3D00C0E0C0D075D000C000C00730981DC2986C
:100C4D00E5257017E523C394404003752300AF23BA
:100C5D00052374372FF8A699752405309921C2996B
:100C6D00E5206521601674772520F8E6F5990520B5
:100C7D00E520C3944040087520008003752200D004
:080C8D0007D000D0D0D0E03206
:10023C0053797374656D20656E7465727920506F97
:10024C0077657220446F776E206D6F6465202E2E5B
:10025C002E0D0A0D0A00436F6C6420726573657471
:10026C002C2064656C617920347320656E74657222
:10027C00792073797374656D202E2E2E0D0A005B18
:10028C004D6F746F72207374617475735D203D3D96
:10029C003D3E200D0A005B4D6F746F7220737461CC
:1002AC007475735D203C3D3D3D200D0A005B4D6F28
:1002BC00746F72207374617475735D2053746F70F6
:1002CC002E0D0A0D0A000D0A002A00200020202005
:1002DC002020202020BAFEB1B1CAA2BCD1B5E7C6FD
:1002EC00F7C9E8B1B8D3D0CFDEB9ABCBBE202D2047
:1002FC00D6C7C4DCD7D4B6AFBACFD5A2BFD8D6C672
:10030C00CFB5CDB30D0A00202056657273696F6EA0
:10031C00204E6F2E2020203A2056657220312E3030
:10032C000D0A00202044657369676E65642054696A
:10033C006D65203A20323031362D30332D32310D6F
:10034C000A00202054656C6570686F6E6520202053
:10035C0020203A20303237202D20383335323030BF
:10036C003636202F2038333536373037370D0A00E4
:10037C002020202020202020416C6C20726967688E
:10038C0074732072657365727665642028632932F4
:10039C003031362020687474703A2F2F7777772E8F
:1003AC00736A64712E636F6D2F0D0A00300031007B
:1003BC003200330034003500360037003800390085
:04001E0075C13A224C
:100EAC007BFF7A02793C120EF1D200120000000096
:090EBC000043870200000000223F
:100EC500E58730E4117BFF7A027962120EF1120F89
:080ED500255387EFD322C3224D
:100F0400E5C730E60353C73FE5C720E50343C760A1
:010F140022BA
:020CE8008F0B70
:100CEA00750CFFE50BB4010FC2B7D2B6750C017BC8
:100CFA00FF7A02798B8021E50BB4100FD2B7C2B606
:100D0A00750C107BFF7A0279A2800DD2B7D2B67524
:0D0D1A000CFF7BFF7A0279B9120EF1AF0CCD
:010D270022A9
:08002E008B2B8A2C892D8D2EED
:10003600E4F52FE52ED394004020E4F52FE52FC3F9
:10004600952E500DAB2BAA2CA92D120EF1052F8043
:0A005600EC7BFF7A0279D2120EF162
:01006000227D
:100B0C007BFF7A0279D57D3E12002E120B6B7A0296
:100B1C0079D9120B587A0279D77D0112002E7BFFFE
:100B2C007A037913120EF17BFF7A03792F120EF1EF
:100B3C007A03794E120B587A03797C120EF1120B50
:100B4C006B7BFF7A0279D57D3E02002E7BFF120E65
:100B5C00F17BFF7A0279D77D0112002E7BFF227B7D
:0B0B6C00FF7A0279D77D0112002E22D3
:1009EC008F36E53670097BFF7A0379B8120EF1E584
:1009FC0036B401097BFF7A0379BA120EF1E536B4ED
:100A0C0002097BFF7A0379BC120EF1E536B40309B7
:100A1C007BFF7A0379BE120EF1E536B404097BFF35
:100A2C007A0379C0120EF1E536B405097BFF7A031F
:100A3C0079C2120EF1E536B406097BFF7A0379C44C
:100A4C00120EF1E536B407097BFF7A0379C6120E54
:100A5C00F1E536B408097BFF7A0379C8120EF1E58B
:100A6C00367BFFB409067A0379CA80047A0279D7F7
:040A7C00120EF12243
:100D2800E4FEF50BF50C750D13750E887F03120B99
:100D3800E0C3EF950CEE950B40048E0B8F0CE50E7F
:0F0D4800150EAC0D7002150D4C70E1AE0BAF0C1B
:010D57002279
:100C9500120066F59D90000112007FFFE5BC549F90
:100CA5004FF5BC90000212007FB4010543BC808063
:100CB5000353BC7F90000312007FB40105439720C6
:100CC50080035397DF90000512007FB40104D2AD75
:100CD5008002C2AD90000412007FB40103D2BD2290
:030CE500C2BD226B
:0B0F4C00BF010443BC802253BC7F2285
:100BE000EFD3940740028050E4F5BDF5BEE5BC5458
:100BF000E044084FF5BC00000000E4FBE5BC30E435
:100C00003353BCEFE59730E509E5BD5403ADBEFCB9
:100C1000801DAFBD7C00AD07ED7E007802C333CEF2
:100C200033CED8F9FFE5BE5403FDEEFCEF4DFDAF2A
:0C0C300005AE04220BBBFAC47E047F005A
:010C3C002295
:03002B00020026AA
:0400260053BCEF32A6
:060DD7008B308A318932E5
:100DDD00E4FFFEEFC39D5013AB30AA31A9328F82D1
:0D0DED0075830012007F2EFE0F80E8AF0618
:010DFA0022D6
:030F6100D2B222E7
:030F6400C2B222F4
:0A0F5700C2998F993099FDC29922CA
:080DAF008B338A348935AE074D
:100DB700E4FDEDC39E5018AB330535E535AA347015
:0F0DC70002053414F9120066FF120F570D80E376
:010DD60022FA
:03000000020A8071
:0C0A8000787FE4F6D8FD7581B6020AC745
:10006600BB010689828A83E0225002E722BBFE0298
:09007600E32289828A83E49322CB
:10007F00BB010CE58229F582E5833AF583E0225036
:10008F0006E92582F8E622BBFE06E92582F8E22280
:0D009F00E58229F582E5833AF583E493229A
:1000AC00BB0110E58229F582E5833AF583E0F5F092
:1000BC00A3E0225009E92582F886F008E622BBFE6F
:1000CC000AE92582F8E2F5F008E222E5832AF583B5
:0800DC00E993F5F0A3E993227A
:1000E40075F008758200EF2FFFEE33FECD33CDCCD3
:1000F40033CCC58233C5829BED9AEC99E582984056
:100104000CF582EE9BFEED9AFDEC99FC0FD5F0D632
:10011400E4CEFBE4CDFAE4CCF9A88222B800C1B95C
:100124000059BA002DEC8BF084CFCECDFCE5F0CB9A
:10013400F97818EF2FFFEE33FEED33FDEC33FCEBD3
:1001440033FB10D703994004EB99FB0FD8E5E4F98E
:10015400FA227818EF2FFFEE33FEED33FDEC33FC7B
:10016400C933C910D7059BE99A4007EC9BFCE99A6F
:10017400F90FD8E0E4C9FAE4CCFB2275F010EF2FB4
:10018400FFEE33FEED33FDCC33CCC833C810D707B4
:100194009BEC9AE899400AED9BFDEC9AFCE899F8EF
:0E01A4000FD5F0DAE4CDFBE4CCFAE4C8F92282
:1001B200EB9FF5F0EA9E42F0E99D42F0E89C45F0A3
:0101C200221A
:1001C300E8600FECC313FCED13FDEE13FEEF13FF1A
:0301D300D8F1223E
:1001D600BB010DE58229F582E5833AF58302021318
:1001E6005007E92582F8020206BBFE07E92582F8D8
:1001F60002021FE58229F582E5833AF58302022C85
:100A8C00020818E493A3F8E493A34003F68001F260
:100A9C0008DFF48029E493A3F85407240CC8C3336B
:100AAC00C4540F4420C8834004F456800146F6DF3A
:100ABC00E4800B0102040810204080900F15E47EA6
:100ACC00019360BCA3FF543F30E509541FFEE4932F
:100ADC00A360010ECF54C025E060A840B8E493A3F6
:100AEC00FAE493A3F8E493A3C8C582C8CAC583CA21
:100AFC00F0A3C8C582C8CAC583CADFE9DEE780BED9
:010F240000CC
:0D020600E6FB08E6F908E6FA08E6CBF82268
:0C021300E0F8A3E0F9A3E0FAA3E0FB226E
:0D021F00E2FB08E2F908E2FA08E2CBF8225F
:10022C00E493F8740193F9740293FA740393FB2228
:00000001FF
