:0A0FE3007E187D55DDFEDEFCDFF612
:010FED0022E1
:0C000E0000007E03DEFEAE071FEE70F463
:01001A0022C3
:0E0FD40000007F6D7EC87DC7DDFEDEFCDFFA0B
:010FE20022EC
:0600030090000102007FE5
:1003CC00EFD3940540037F0122120066FED3940301
:1003DC0040037F0222EF7035EE7008120003F452D6
:1003EC00935294120066B401081200034293F45223
:1003FC0094120066FEB4020712000342934294EE7C
:10040C00B4030A120003FEF45293EE4294EF64011B
:10041C007037120066FE7008120003F4529152926B
:10042C00EEB401081200034291F45292120066B429
:10043C00020712000342914292120066B4030A12A0
:10044C000003FEF45291EE4292EF640270371200F8
:10045C0066FE7008120003F452955296EEB4010831
:10046C001200034295F45296120066B40207120071
:10047C000342954296120066B4030A120003FEF47E
:10048C005295EE4296EF64037037120066FE7008C8
:10049C00120003F452B152B2EEB40108120003423E
:1004AC00B1F452B2120066B4020712000342B14218
:1004BC00B2120066B4030A120003FEF452B1EE420B
:1004CC00B2EF64047037120066FE7008120003F479
:1004DC0052B352B4EEB4010812000342B3F452B456
:1004EC00120066B4020712000342B342B412006653
:1004FC00B4030A120003FEF452B3EE42B4EF6405E7
:10050C007037120066FF7008120003F452C952CA09
:10051C00EFB4010812000342C9F452CA120066B4C7
:10052C00020712000342C942CA120066B4030A123F
:0C053C000003FFF452C9EF42CA7F002206
:100C1E005B54696D654F75745D2057616974204D25
:100C2E006F6E746F72203C3D3D3D2074696D656F33
:100C3E0075742035205365632E004F5645525F560E
:100C4E004F4C544147450D0A004C4F53535F564F7E
:100C5E004C544147450D0A00554E4445525F564F80
:100C6E004C544147450D0A004E4F524D414C5F5674
:090C7E004F4C544147450D0A009A
:100F73000126FF011FFF0123FF0224FFFF012111AF
:060F83000122110120FF14
:100EF200EFFDD3E5259DE52494002274FFF524F54A
:0C0F02002522D3E50A9409E50994022297
:100DFF00750B40750C02E4F510750F96F50EF50D99
:100E0F00751201F513751401F515F516F517FB7A23
:080E1F0000790B7F0102054878
:100EB500E4F50B750C01750D01750E01F50F751037
:100EC500637511C0751201FB7A00790BFF0206C22A
:100B4300750C03120B9B750C38120B9B750C04E48C
:100B5300F50B7F01120BAA750C30750B017B007A24
:100B630000790B7F051203CC750CC0120B8D750C2D
:100B730004120B8D750C08E4F50B7F03120BAAD23C
:090B8300B7D2B6C2B2D292D2B3CD
:100B8C0022E4F50BFB7A00790B7F031203CC227560
:100B9C000B017B007A00790B7F011203CC22FB7ACC
:070BAC0000790B1203CC22BB
:100ED500750B08E4F50C750D01750E01F50FF51090
:0D0EE500FB7A00790B120D3C7F01020FEE2D
:100FB100E4F524F525D3E5259FE5249E40F7120E9F
:020FC100FD220F
:100F0E00E4F524F52530CC0E120EF240F87BFF7A74
:0A0F1E000C791E120F9E120EFD2228
:100F2800E4F524F52530CD0E120EF240F87BFF7A59
:0A0F38000C791E120F9E120EFD220E
:10081800E4F508F509F50AC2AF120EB5120DFF127C
:100828000B43120ED5D2AF12001EE4F508120DCFFD
:10083800EF250AF50AEE3509F509C3E50A940EE530
:10084800099403400B7521107BFF7A0C7948805678
:10085800D3E50A94ECE5099401501CE50A450970B2
:100868000B7521117BFF7A0C7957803A7521017B32
:10087800FF7A0C7966802FC3E50A94F0E5099402A3
:100888005006E52264106015120F044006E5226444
:1008980001600A120F044011E522B4110CE4F5219D
:1008A8007BFF7A0C7976120F9EE4F509F50AE521AB
:1008B800604DE526B4FF03E4F526E521B4010AE519
:1008C80023B4FF05E4F523800DE521B41008E51FE6
:1008D800B4FF03E4F51F20CD0AE520F470030208F5
:1008E800328027E520640160077F01120D8F8F2079
:1008F8007FFA120F28E520F47003020832800B20DB
:10090800CC12E520F470030208327FFF120D8F8F9E
:100918002002083230910AE520640160117F0180CD
:1009280008E520641060077F10120D8F8F207FFA72
:10093800120F0EE520F470030208327FFF120D8FAC
:050948008F20020832BF
:03000B0002094D9A
:10094D00C0E0C0D053C17F43C110D3E52594E8E585
:10095D0024940350080525E52570020524E526F4A9
:10096D00602B0526E526C39405500BE526C39400A0
:10097D004004C2B38017E526C3940A500BE526C385
:10098D0094054004D2B380057526FFD2B3E51FF45C
:10099D00602B051FE51FC39419500BE51FC3940071
:1009AD004004C2928017E51FC39432500BE51FC35C
:1009BD0094194004D2928005D292751FFFE523F45D
:1009CD00604F0523E523C3940F500BE523C394001B
:1009DD004004C292803BE523C39414500BE523C31E
:1009ED00940F4004D2928029E523C39423500BE544
:1009FD0023C394144004C2928017E523C3948750F7
:100A0D000BE523C394234004D2928005D292752323
:060A1D00FFD0D0D0E03252
:100E73004EF58990000302007F9000050200AC90BC
:100E8300000202007F90000402007F90000702002E
:010E93007FDF
:03001B00020009D7
:0100090032C4
:0300630002000A8E
:01000A0032C3
:1006C200AD07EDD3940240037F0122ED706EC28C20
:1006D200120E82B40104D2A98002C2A990000112B2
:1006E200007FB40104D2B98002C2B9120066FED3FF
:1006F200940340037F0222E58954FC120E73FFB477
:100702000103538E7FEF7003438E80EFB4020543E3
:10071200890480035389FB120E88B40105438F01BB
:100722008003538FFE120E7CE5F0F58C120E7CF5E1
:100732008A120E8EB40102D28C7F0022ED64017007
:100742006EC28E120E82B40104D2AB8002C2AB9092
:10075200000112007FB40104D2BB8002C2BB1200AE
:1007620066FEC3940340037F0222E58954CF120E32
:1007720073FFB40103538EBFEF7003438E40EFB497
:10078200020543894080035389BF120E88B40105D4
:10079200438F028003538FFD120E7CE5F0F58D121C
:1007A2000E7CF58B120E8EB40102D28E7F0022EDEA
:1007B2006402705F538EEF120E82B4010543AF04E0
:1007C200800353AFFB120E76FED3940240037F02E6
:1007D20022EEB40103538EFB120E767003438E0495
:1007E200120E76B40205438E088003538EF7120E62
:1007F20088B40105438F048003538FFB120E7CFDE6
:10080200ACF0ECF5D68DD7120E8EB40103438E10E8
:060812007F00227F02229C
:100F8A00AF1EAE1DAD1CAC1B78080201C3AB18AA7C
:040F9A0019A91A2255
:060548008B188A19891AC4
:10054E00EF640160030206BF752701F528F529F552
:10055E002AF52BF52CF52D7F40787AE4F608DFFC92
:10056E007F40783AE4F608DFFC120F97120066D34C
:10057E0094C040037F012290000A12007FB4010450
:10058E00D2BC8002C2BC120066FFE598543F4FF504
:10059E0098EF64C06008EF64406003020649900063
:1005AE00021201D67F807E8D7D5B7C001201208F32
:1005BE001E8E1D8D1C8C1BE4FFFE7D01FCAB1EAA46
:1005CE001DA91CA81BC31201B240037F0222C3E463
:1005DE00951EF51EE4951DF51D7401951CF51CE484
:1005EE00951BF51B120F9790000112007FFB640103
:1005FE007022C28E538EFE5389BF5389CF438E40D5
:10060E00120F8A8F8D851E8BC2AB5389BF538FFD00
:10061E00D28E8058EB6402701F538EEF438E0153BF
:10062E008EF7438E04120F8A8FD6851ED753AFFBDB
:10063E00538EF7438E1080347F0222120F971200D2
:10064E0066FF701390000812007FB40105438E20E0
:10065E00801A538EDF8015EFB480119000081200BF
:10066E007FB40105438780800353877F120F9790D5
:10067E00000912007FB40104D2AC8002C2AC90001B
:10068E000712007FB40104D29C8002C29C90000B22
:10069E0012007F54C0FFE5A2543F4FF5A290000C0C
:1006AE0012007FB4010543971080035397EF7F002C
:0306BE00227F0395
:0106C1002216
:100E9400E52A70FC747A2529F8A6070529E529C3F3
:100EA40094404003E4F529E52A7005752A01D29996
:010EB400221B
:100F9E00120066FF600C120E94740129F9E43AFAFD
:030FAE0080EE22B0
:03002300020CE4E8
:100CE400C0E0C0D075D000C000C00730981DC298C5
:100CF400E52D7017E52BC394404003752B00AF2BF3
:100D0400052B743A2FF8A699752C05309921C299B0
:100D1400E52865296016747A2528F8E6F5990528EA
:100D2400E528C3944040087528008003752A00D044
:080D340007D000D0D0D0E0325E
:10023C0053797374656D20656E7465727920506F97
:10024C0077657220446F776E206D6F6465202E2E5B
:10025C002E0D0A0D0A00436F6C6420726573657471
:10026C002C2064656C617920347320656E74657222
:10027C00792073797374656D202E2E2E0D0A005B18
:10028C004D6F746F72207374617475735D203D3D96
:10029C003D3E200D0A005B4D6F746F7220737461CC
:1002AC007475735D203C3D3D3D200D0A005B4D6F28
:1002BC00746F72207374617475735D2053746F70F6
:1002CC002E0D0A0D0A000D0A002A00200020202005
:1002DC002020202020BAFEB1B1CAA2BCD1B5E7C6FD
:1002EC00F7C9E8B1B8D3D0CFDEB9ABCBBE202D2047
:1002FC00D6C7C4DCD7D4B6AFBACFD5A2BFD8D6C672
:10030C00CFB5CDB30D0A00202056657273696F6EA0
:10031C00204E6F2E2020203A2056657220312E3030
:10032C000D0A00202044657369676E65642054696A
:10033C006D65203A20323031362D30332D32310D6F
:10034C000A00202054656C6570686F6E6520202053
:10035C0020203A20303237202D20383335323030BF
:10036C003636202F2038333536373037370D0A00E4
:10037C002020202020202020416C6C20726967688E
:10038C0074732072657365727665642028632932F4
:10039C003031362020687474703A2F2F7777772E8F
:1003AC00736A64712E636F6D2F0D0A00300031007B
:1003BC003200330034003500360037003800390085
:04001E0075C13A224C
:100F42007BFF7A02793C120F9ED200120000000051
:090F5200004387020000000022A8
:100F5B00E58730E4117BFF7A027962120F9E120F44
:080F6B00D45387EFD322C32207
:100FC300E5C730E60353C73FE5C720E50343C760E2
:010FD30022FB
:020D8F008F0BC8
:100D9100750CFFE50BB4010FC2B7D2B6750C017B20
:100DA100FF7A02798B8021E50BB4100FD2B7C2B65E
:100DB100750C107BFF7A0279A2800DD2B7D2B6757D
:0D0DC1000CFF7BFF7A0279B9120F9EAF0C78
:010DCE002202
:08002E008B2E8A2F89308D31E1
:10003600E4F532E531D394004020E4F532E532C3ED
:100046009531500DAB2EAA2FA930120F9E05328086
:0A005600EC7BFF7A0279D2120F9EB4
:01006000227D
:100BB3007BFF7A0279D57D3E12002E120C127A0247
:100BC30079D9120BFF7A0279D77D0112002E7BFFB0
:100BD3007A037913120F9E7BFF7A03792F120F9EEC
:100BE3007A03794E120BFF7A03797C120F9E120C53
:100BF300127BFF7A0279D57D3E02002E7BFF120F16
:100C03009E7BFF7A0279D77D0112002E7BFF227B28
:0B0C1300FF7A0279D77D0112002E222B
:100A23008F39E53970097BFF7A0379B8120F9EE598
:100A330039B401097BFF7A0379BA120F9EE539B401
:100A430002097BFF7A0379BC120F9EE539B40309CF
:100A53007BFF7A0379BE120F9EE539B404097BFF4D
:100A63007A0379C0120F9EE539B405097BFF7A0337
:100A730079C2120F9EE539B406097BFF7A0379C464
:100A8300120F9EE539B407097BFF7A0379C6120F6B
:100A93009EE539B408097BFF7A0379C8120F9EE5F6
:100AA300397BFFB409067A0379CA80047A0279D7BD
:040AB300120F9E225E
:100DCF00E4FEF50BF50C750D13750E887F03120CF1
:100DDF0087C3EF950CEE950B40048E0B8F0CE50E31
:0F0DEF00150EAC0D7002150D4C70E1AE0BAF0C74
:010DFE0022D2
:100D3C00120066F59D90000112007FFFE5BC549FE8
:100D4C004FF5BC90000212007FB4010543BC8080BB
:100D5C000353BC7F90000312007FB401054397201E
:100D6C0080035397DF90000512007FB40104D2ADCD
:100D7C008002C2AD90000412007FB40103D2BD22E8
:030D8C00C2BD22C3
:0B0FEE00BF010443BC802253BC7F22E3
:100C8700EFD3940740028050E4F5BDF5BEE5BC54B0
:100C9700E044084FF5BC00000000E4FBE5BC30E48D
:100CA7003353BCEFE59730E509E5BD5403ADBEFC12
:100CB700801DAFBD7C00AD07ED7E007802C333CE4B
:100CC70033CED8F9FFE5BE5403FDEEFCEF4DFDAF83
:0C0CD70005AE04220BBBFAC47E047F00B3
:010CE30022EE
:03002B00020026AA
:0400260053BCEF32A6
:060E4F008B338A34893563
:100E5500E4FFFEEFC39D5013AB33AA34A9358F824F
:0D0E650075830012007F2EFE0F80E8AF069F
:010E7200225D
:03100300D2B22244
:03100600C2B22251
:0A0FF900C2998F993099FDC2992228
:080E27008B368A378938AE07CB
:100E2F00E4FDEDC39E5018AB360538E538AA377090
:0F0E3F0002053714F9120066FF120FF90D80E358
:010E4E002281
:03000000020AB73A
:0C0AB700787FE4F6D8FD7581B9020AFED4
:10006600BB010689828A83E0225002E722BBFE0298
:09007600E32289828A83E49322CB
:10007F00BB010CE58229F582E5833AF583E0225036
:10008F0006E92582F8E622BBFE06E92582F8E22280
:0D009F00E58229F582E5833AF583E493229A
:1000AC00BB0110E58229F582E5833AF583E0F5F092
:1000BC00A3E0225009E92582F886F008E622BBFE6F
:1000CC000AE92582F8E2F5F008E222E5832AF583B5
:0800DC00E993F5F0A3E993227A
:1000E40075F008758200EF2FFFEE33FECD33CDCCD3
:1000F40033CCC58233C5829BED9AEC99E582984056
:100104000CF582EE9BFEED9AFDEC99FC0FD5F0D632
:10011400E4CEFBE4CDFAE4CCF9A88222B800C1B95C
:100124000059BA002DEC8BF084CFCECDFCE5F0CB9A
:10013400F97818EF2FFFEE33FEED33FDEC33FCEBD3
:1001440033FB10D703994004EB99FB0FD8E5E4F98E
:10015400FA227818EF2FFFEE33FEED33FDEC33FC7B
:10016400C933C910D7059BE99A4007EC9BFCE99A6F
:10017400F90FD8E0E4C9FAE4CCFB2275F010EF2FB4
:10018400FFEE33FEED33FDCC33CCC833C810D707B4
:100194009BEC9AE899400AED9BFDEC9AFCE899F8EF
:0E01A4000FD5F0DAE4CDFBE4CCFAE4C8F92282
:1001B200EB9FF5F0EA9E42F0E99D42F0E89C45F0A3
:0101C200221A
:1001C300E8600FECC313FCED13FDEE13FEEF13FF1A
:0301D300D8F1223E
:1001D600BB010DE58229F582E5833AF58302021318
:1001E6005007E92582F8020206BBFE07E92582F8D8
:1001F60002021FE58229F582E5833AF58302022C85
:100AC300020818E493A3F8E493A34003F68001F229
:100AD30008DFF48029E493A3F85407240CC8C33334
:100AE300C4540F4420C8834004F456800146F6DF03
:100AF300E4800B0102040810204080900F73E47E11
:100B0300019360BCA3FF543F30E509541FFEE493F7
:100B1300A360010ECF54C025E060A840B8E493A3BE
:100B2300FAE493A3F8E493A3C8C582C8CAC583CAE9
:100B3300F0A3C8C582C8CAC583CADFE9DEE780BEA1
:010F89000067
:0D020600E6FB08E6F908E6FA08E6CBF82268
:0C021300E0F8A3E0F9A3E0FAA3E0FB226E
:0D021F00E2FB08E2F908E2FA08E2CBF8225F
:10022C00E493F8740193F9740293FA740393FB2228
:00000001FF
