:060D800090000102009F3B
:1003FD00EFD3940540037F0122120086FED39403B0
:10040D0040037F0222EF7035EE7008120D80F4521A
:10041D00935294120086B40108120D804293F45247
:10042D0094120086FEB40207120D8042934294EEA0
:10043D00B4030A120D80FEF45293EE4294EF640160
:10044D007037120086FE7008120D80F45291529290
:10045D00EEB40108120D804291F45292120086B44E
:10046D000207120D8042914292120086B4030A12C5
:10047D000D80FEF45291EE4292EF6402703712003D
:10048D0086FE7008120D80F452955296EEB4010856
:10049D00120D804295F45296120086B40207120D89
:1004AD008042954296120086B4030A120D80FEF426
:1004BD005295EE4296EF64037037120086FE700877
:1004CD00120D80F452B152B2EEB40108120D8042F9
:1004DD00B1F452B2120086B40207120D8042B1423D
:1004ED00B2120086B4030A120D80FEF452B1EE4230
:1004FD00B2EF64047037120086FE7008120D80F49E
:10050D0052B352B4EEB40108120D8042B3F452B49A
:10051D00120086B40207120D8042B342B412008657
:10052D00B4030A120D80FEF452B3EE42B4EF64052B
:10053D007037120086FF7008120D80F452C952CA2E
:10054D00EFB40108120D8042C9F452CA120086B4EC
:10055D000207120D8042C942CA120086B4030A1264
:0C056D000D80FFF452C9EF42CA7F00224B
:10025C005B54696D654F75745D2057616974204DF1
:10026C006F6E746F72203C3D3D3D2074696D656FFF
:10027C0075742035205365632E005B2045787420FF
:10028C004374726C205369676E616C5D204C4F53E4
:10029C00532E0D0A005B20457874204374726C2039
:1002AC005369676E616C5D204F4B2E0D0A005B53DA
:1002BC00797374656D20576F726B204D6F64655D3B
:1002CC00204155544F204D6F64652E0D0A005B5331
:1002DC00797374656D20576F726B204D6F64655D1B
:1002EC00204D414E55414C204D6F64652E0D0A003A
:1002FC005B202020204F7574204F666620486F6F5E
:10030C006B5D205945532E0D0A005B202020204F99
:10031C007574204F666620486F6F6B5D204E4F2EB4
:10032C00200D0A005B2020205377697463682053EA
:10033C0074617475735D204F4E2E200D0A005B2086
:10034C002020537769746368205374617475735DEE
:10035C00204F46462E200D0A000D0A0D0A3D3D3D4C
:10036C003D3D3D3D3D3D3D3D3D3D3D3D3D3D3D3DB1
:10037C003D3D3D3D3D3D3D3D3D3D3D3D3D3D3D3DA1
:10038C003D3D3D3D3D3D3D3D3D3D3D3D3D3D3D0DC1
:10039C000A0053797374656D20496E6974204F6B34
:1003AC002C20537461727420576174636820446FFD
:1003BC0067204F4B202E2E2E200D0A003D3D3D3D3B
:1003CC003D3D3D3D3D3D3D3D3D3D3D3D3D3D3D3D51
:1003DC003D3D3D3D3D3D3D3D3D3D3D3D3D3D3D3D41
:1003EC003D3D3D3D3D3D3D3D3D3D3D3D3D3D0D0A94
:0103FC000000
:0B0D6A00011DFF011EFF011CFFC180E6
:0F0D4E00E4F508750901750A01FB7A007908229E
:10002600750840750902E4F50D750C96F50BF50A91
:10003600750F01F510751101F512F513F514FB7A1C
:080046000079087F0102057931
:100C180075090F7508017B00120C3D750910E4F584
:100C280008FB120C3D7509C0E4F508FB7A00790849
:050C38007F030203FD33
:0A0C3D007A0079087F011203FD22FE
:100C8900E4F508750901750A01750B01F50C750D77
:0F0C99004CF50E750F01FB7A007908FF0206F388
:0F0D3F00120D4EFF1208F7120D4E7F010208F73A
:0D0D5D00E4F51EE51ED39F40FA751EFF222F
:10006600E4F51E30920FE51ED39F40F77BFF7A0220
:09007600795C120D1B751EFF22BE
:100CA800E4F51E30930FE51ED39F40F77BFF7A02D1
:090CB800795C120D1B751EFF2270
:100B15007BFF3090067A02798680047A0279A112E9
:100B25000D1B7BFF3091067A0279BA80047A02792F
:100B3500DA120D1B7BFF2093067A0279FC80047A7A
:100B4500037916120D1B7BFF2092067A03793080FC
:090B5500047A03794A120D1B22F7
:10084900C2AF120C18C201120D76120D3F1200260A
:10085900120C89D2AF120CF2920030000312001868
:100869001200067BFF7A037965120D1B7BFF7A0361
:10087900799E120D1B7BFF7A0379C8120D1B3090EC
:1008890023209307E51DF4605D804FE51D64016039
:10089900077F01120B5E8F1D7F64120CA8E51DF402
:1008A9006044803620903C209207E51DF460378033
:1008B9002930910AE51D640160117F018008E51D59
:1008C900641060077F10120B5E8F1D7F6412006633
:1008D9007F04120D5DE51DF4600C7FFF120B5E8F26
:0E08E9001D8003120D2E120B15120CC18090F3
:03000300020B9E4F
:100B9E00C0E0C0F0C083C082C0D075D000C000C01D
:100BAE0001C002C003C004C005C006C00700120D7C
:100BBE002E00D007D006D005D004D003D002D0012D
:0D0BCE00D000D0D0D082D083D0F0D0E03263
:03001300020BDB02
:100BDB00C0E0C0F0C083C082C0D075D000C000C0E0
:100BEB0001C002C003C004C005C006C00700120D3F
:100BFB002E00D007D006D005D004D003D002D001F0
:0D0C0B00D000D0D0D082D083D0F0D0E03225
:03000B00020CDA0A
:100CDA00C0E0C0D053C17F43C110E51ED394C850B1
:080CEA0002051ED0D0D0E0325B
:100C47004EF58990000302009F9000050200CC90AA
:100C5700000202009F90000402009F90000702001C
:010C67009FED
:03001B0002000AD6
:01000A0032C3
:0300630002001286
:0100120032BB
:1006F300AD07EDD3940240037F0122ED706EC28CEF
:10070300120C56B40104D2A98002C2A990000112AE
:10071300009FB40104D2B98002C2B9120086FED38D
:10072300940340037F0222E58954FC120C47FFB473
:100733000103538E7FEF7003438E80EFB4020543B2
:10074300890480035389FB120C5CB40105438F01B8
:100753008003538FFE120C50E5F0F58C120C50F50C
:100763008A120C62B40102D28C7F0022ED64017004
:100773006EC28E120C56B40104D2AB8002C2AB908F
:10078300000112009FB40104D2BB8002C2BB12005D
:1007930086FEC3940340037F0222E58954CF120CE3
:1007A30047FFB40103538EBFEF7003438E40EFB492
:1007B300020543894080035389BF120C5CB40105D1
:1007C300438F028003538FFD120C50E5F0F58D1219
:1007D3000C50F58B120C62B40102D28E7F0022ED15
:1007E3006402705F538EEF120C56B4010543AF04DD
:1007F300800353AFFB120C4AFED3940240037F02E3
:1008030022EEB40103538EFB120C4A7003438E0491
:10081300120C4AB40205438E088003538EF7120C60
:100823005CB40105438F048003538FFB120C50FD0E
:10083300ACF0ECF5D68DD7120C62B40103438E10E5
:060843007F00227F02226B
:100D0700AF1BAE1AAD19AC1878080201E3AB15AAF0
:040D170016A91722E0
:060579008B158A1689179C
:10057F00EF640160030206F0752101F522F523F502
:10058F0024F525F526F5277F407868E4F608DFFC8B
:10059F007F407828E4F608DFFC120D14120086D392
:1005AF0094C040037F012290000A12009FB40104FF
:1005BF00D2BC8002C2BC120086FFE598543F4FF5B3
:1005CF0098EF64C06008EF6440600302067A900001
:1005DF00021201F67F007E307D2A7C001201408FCF
:1005EF001B8E1A8D198C18E4FFFE7D01FCAB1BAA24
:1005FF001AA919A818C31201D240037F0222C3E41B
:10060F00951BF51BE4951AF51A74019519F519E464
:10061F009518F518120D1490000112009FFB64013C
:10062F007022C28E538EFE5389BF5389CF438E40A3
:10063F00120D078F8D851B8BC2AB5389BF538FFD57
:10064F00D28E8058EB6402701F538EEF438E01538E
:10065F008EF7438E04120D078FD6851BD753AFFB32
:10066F00538EF7438E1080347F0222120D14120026
:10067F0086FF701390000812009FB40105438E206F
:10068F00801A538EDF8015EFB4801190000812008E
:10069F009FB40105438780800353877F120D149009
:1006AF00000912009FB40104D2AC8002C2AC9000CA
:1006BF000712009FB40104D29C8002C29C90000BD1
:1006CF0012009F54C0FFE5A2543F4FF5A290000CBB
:1006DF0012009FB4010543971080035397EF7F00DB
:0306EF00227F0364
:0106F20022E5
:100C6800E52470FC74682523F8A6070523E523C34B
:100C780094404003E4F523E5247005752401D299D6
:010C88002249
:100D1B00120086FF600C120C68740129F9E43AFA90
:030D2B0080EE2235
:03002300020ABD11
:100ABD00C0E0C0D075D000C000C00730981DC298EE
:100ACD00E5277017E525C394404003752500AF2534
:100ADD00052574282FF8A699752605309921C299F8
:100AED00E5226523601674682522F8E6F59905223E
:100AFD00E522C3944040087522008003752400D080
:080B0D0007D000D0D0D0E03287
:10099B0053797374656D20656E7465727920506F31
:1009AB0077657220446F776E206D6F6465202E2EF5
:1009BB002E0D0A0D0A00436F6C642072657365740B
:1009CB002C2064656C617920347320656E746572BC
:1009DB00792073797374656D202E2E2E0D0A005BB2
:1009EB004D6F746F72207374617475735D203D3D30
:1009FB003D3E200D0A005B4D6F746F722073746166
:100A0B007475735D203C3D3D3D200D0A005B4D6FC1
:100A1B00746F72207374617475735D2053746F708F
:060A2B002E0D0A0D0A0069
:0400060075C13A2264
:0A0D7600300103C38001D3929422E0
:100CC1007BFF7A09799B120D1BD201120D76000070
:090CD1000043870200000000222C
:100CF200E58730E40E7BFF7A0979C1120D1B538719
:050D0200EFD322C32223
:100D2E00E5C730E60353C73FE5C720E50343C76079
:010D3E002292
:020B5E008F08FE
:100B60007509FFE508B4010FD2B7C2B67509017B5C
:100B7000FF7A0979EA8021E508B4100FC2B7D2B62E
:100B80007509107BFF7A0A7901800DD2B7D2B6754C
:0D0B900009FF7BFF7A0A7918120D1BAF09CF
:010B9D002235
:0100180022C5
:060D860090000202009F34
:0300530002000E9A
:02000E000032BE
:03005B0002001090
:020010000032BC
:0300830002001662
:020016000032B6
:1008F700EFD3940440037F0122EF702A120D86B4D0
:100907000104D2A88002C2A890000112009FB4017E
:1009170004D2B88002C2B8120086B40104D288801B
:1009270002C2887F0022EF6401702A120D86B4018B
:1009370004D2AA8002C2AA90000112009FB4010447
:10094700D2BA8002C2BA120086B40104D28A8002E7
:10095700C28A7F0022BF0211120D86B40105438FA0
:10096700108003538FEF7F0022BF0311120D86B44F
:100977000105438F208003538FDF7F0022BF0411BF
:10098700120D86B40105438F408003538FBF7F004C
:04099700227F022297
:03000000020A31C0
:0C0A3100787FE4F6D8FD7581A7020A78F2
:10008600BB010689828A83E0225002E722BBFE0278
:09009600E32289828A83E49322AB
:10009F00BB010CE58229F582E5833AF583E0225016
:1000AF0006E92582F8E622BBFE06E92582F8E22260
:0D00BF00E58229F582E5833AF583E493227A
:1000CC00BB0110E58229F582E5833AF583E0F5F072
:1000DC00A3E0225009E92582F886F008E622BBFE4F
:1000EC000AE92582F8E2F5F008E222E5832AF58395
:0800FC00E993F5F0A3E993225A
:1001040075F008758200EF2FFFEE33FECD33CDCCB2
:1001140033CCC58233C5829BED9AEC99E582984035
:100124000CF582EE9BFEED9AFDEC99FC0FD5F0D612
:10013400E4CEFBE4CDFAE4CCF9A88222B800C1B93C
:100144000059BA002DEC8BF084CFCECDFCE5F0CB7A
:10015400F97818EF2FFFEE33FEED33FDEC33FCEBB3
:1001640033FB10D703994004EB99FB0FD8E5E4F96E
:10017400FA227818EF2FFFEE33FEED33FDEC33FC5B
:10018400C933C910D7059BE99A4007EC9BFCE99A4F
:10019400F90FD8E0E4C9FAE4CCFB2275F010EF2F94
:1001A400FFEE33FEED33FDCC33CCC833C810D70794
:1001B4009BEC9AE899400AED9BFDEC9AFCE899F8CF
:0E01C4000FD5F0DAE4CDFBE4CCFAE4C8F92262
:1001D200EB9FF5F0EA9E42F0E99D42F0E89C45F083
:0101E20022FA
:1001E300E8600FECC313FCED13FDEE13FEEF13FFFA
:0301F300D8F1221E
:1001F600BB010DE58229F582E5833AF583020233D8
:100206005007E92582F8020226BBFE07E92582F897
:1002160002023FE58229F582E5833AF58302024C24
:100A3D00020849E493A3F8E493A34003F68001F27E
:100A4D0008DFF48029E493A3F85407240CC8C333BA
:100A5D00C4540F4420C8834004F456800146F6DF89
:100A6D00E4800B0102040810204080900D6AE47EA2
:100A7D00019360BCA3FF543F30E509541FFEE4937E
:100A8D00A360010ECF54C025E060A840B8E493A345
:100A9D00FAE493A3F8E493A3C8C582C8CAC583CA70
:100AAD00F0A3C8C582C8CAC583CADFE9DEE780BE28
:010D7500007D
:0D022600E6FB08E6F908E6FA08E6CBF82248
:0C023300E0F8A3E0F9A3E0FAA3E0FB224E
:0D023F00E2FB08E2F908E2FA08E2CBF8223F
:10024C00E493F8740193F9740293FA740393FB2208
:00000001FF
