:0F0EDD007D527C03ED1D70011C144C70F7DFF18A
:010EEC0022E3
:0E0EED0000007FA97E187D3BDDFEDEFCDFFAF3
:010EFB0022D4
:060F3D0090000102009F7C
:1003FD00EFD3940540037F0122120086FED39403B0
:10040D0040037F0222EF7035EE7008120F3DF4525B
:10041D00935294120086B40108120F3D4293F45288
:10042D0094120086FEB40207120F3D42934294EEE1
:10043D00B4030A120F3DFEF45293EE4294EF6401A1
:10044D007037120086FE7008120F3DF452915292D1
:10045D00EEB40108120F3D4291F45292120086B48F
:10046D000207120F3D42914292120086B4030A1206
:10047D000F3DFEF45291EE4292EF6402703712007E
:10048D0086FE7008120F3DF452955296EEB4010897
:10049D00120F3D4295F45296120086B40207120FC8
:1004AD003D42954296120086B4030A120F3DFEF4AA
:1004BD005295EE4296EF64037037120086FE700877
:1004CD00120F3DF452B152B2EEB40108120F3D427B
:1004DD00B1F452B2120086B40207120F3D42B1427E
:1004ED00B2120086B4030A120F3DFEF452B1EE4271
:1004FD00B2EF64047037120086FE7008120F3DF4DF
:10050D0052B352B4EEB40108120F3D42B3F452B4DB
:10051D00120086B40207120F3D42B342B412008698
:10052D00B4030A120F3DFEF452B3EE42B4EF64056C
:10053D007037120086FF7008120F3DF452C952CA6F
:10054D00EFB40108120F3D42C9F452CA120086B42D
:10055D000207120F3D42C942CA120086B4030A12A5
:0C056D000F3DFFF452C9EF42CA7F00228C
:10025C005B54696D654F75745D2057616974204DF1
:10026C006F6E746F72203C3D3D3D2074696D656FFF
:10027C0075742035205365632E005B2045787420FF
:10028C004374726C205369676E616C5D204C4F53E4
:10029C00532E0D0A005B20457874204374726C2039
:1002AC005369676E616C5D204F4B2E0D0A005B53DA
:1002BC00797374656D20576F726B204D6F64655D3B
:1002CC00204155544F204D6F64652E0D0A005B5331
:1002DC00797374656D20576F726B204D6F64655D1B
:1002EC00204D414E55414C204D6F64652E0D0A003A
:1002FC005B202020204F7574204F666620486F6F5E
:10030C006B5D205945532E0D0A005B202020204F99
:10031C007574204F666620486F6F6B5D204E4F2EB4
:10032C00200D0A005B2020205377697463682053EA
:10033C0074617475735D204F4E2E200D0A005B2086
:10034C002020537769746368205374617475735DEE
:10035C00204F46462E200D0A000D0A0D0A3D3D3D4C
:10036C003D3D3D3D3D3D3D3D3D3D3D3D3D3D3D3DB1
:10037C003D3D3D3D3D3D3D3D3D3D3D3D3D3D3D3DA1
:10038C003D3D3D3D3D3D3D3D3D3D3D3D3D3D3D0DC1
:10039C000A0053797374656D20496E6974204F6B34
:1003AC002C20537461727420576174636820446FFD
:1003BC0067204F4B202E2E2E200D0A003D3D3D3D3B
:1003CC003D3D3D3D3D3D3D3D3D3D3D3D3D3D3D3D51
:1003DC003D3D3D3D3D3D3D3D3D3D3D3D3D3D3D3D41
:1003EC003D3D3D3D3D3D3D3D3D3D3D3D3D3D0D0A94
:0103FC000000
:0B0F2700011DFF011EFF011CFFC18027
:0F0F0B00E4F508750901750A01FB7A00790822DF
:10002600750840750902E4F50D750C96F50BF50A91
:10003600750F01F510751101F512F513F514FB7A1C
:080046000079087F010206F5B4
:100DB30075090F7508017B00120DD8750910E4F54C
:100DC30008FB120DD87509C0E4F508FB7A00790811
:050DD3007F030203FD97
:0A0DD8007A0079087F011203FD2262
:100E2400E4F508750901750A01750B01F50C750DDA
:0F0E34004CF50E750F01FB7A007908FF02086F6D
:0F0EFC00120F0BFF120A7B120F0B7F01020A7BF2
:0D0F1A00E4F51EE51ED39F40FA751EFF2270
:10006600E4F51E30920FE51ED39F40F77BFF7A0220
:09007600795C120EB9751EFF221F
:100E4300E4F51E30930FE51ED39F40F77BFF7A0234
:090E5300795C120EB9751EFF2234
:100CBD007BFF3090067A02798680047A0279A11240
:100CCD000EB97BFF3091067A0279BA80047A0279E7
:100CDD00DA120EB97BFF2093067A0279FC80047A32
:100CED00037916120EB97BFF2092067A03793080B4
:090CFD00047A03794A120EB922AF
:1009C500C2AF120DB3C201120F33120EFC12002674
:1009D500120E24D2AF120E8D9200300003120BAB13
:1009E5001200067BFF7A037965120EB97BFF7A0345
:1009F500799E120EB97BFF7A0379C8120EB9309031
:100A0500307F14120F1A3090F5209307E51DF4601E
:100A15005D804F7F1E120F1AE51D640160077F017F
:100A2500120C6E8F1D7F64120E43E51DF4603F802E
:100A350031209037209207E51DF4603280243091F3
:100A45000AE51D640160117F018008E51D641060E1
:100A5500077F10120C6E8F1D7F64120066E51DF472
:100A6500600C7FFF120C6E8F1D8003120ECC120CD2
:060A7500BD120E5C80883A
:03000300020D06E5
:100D0600C0E0C0F0C083C082C0D075D000C000C0B3
:100D160001C002C003C004C005C006C00700120E11
:100D2600CC00D007D006D005D004D003D002D00125
:0D0D3600D000D0D0D082D083D0F0D0E032F9
:03001300020D4398
:100D4300C0E0C0F0C083C082C0D075D000C000C076
:100D530001C002C003C004C005C006C00700120ED4
:100D6300CC00D007D006D005D004D003D002D001E8
:0D0D7300D000D0D0D082D083D0F0D0E032BC
:03000B00020E756D
:100E7500C0E0C0D053C17F43C110E51ED394C85014
:080E850002051ED0D0D0E032BE
:100DE2004EF58990000302009F9000050200CC900E
:100DF200000202009F90000402009F900007020080
:010E02009F50
:03001B0002000AD6
:01000A0032C3
:0300630002001286
:0100120032BB
:10086F00AD07EDD3940240037F0122ED706EC28C71
:10087F00120DF1B40104D2A98002C2A99000011295
:10088F00009FB40104D2B98002C2B9120086FED310
:10089F00940340037F0222E58954FC120DE2FFB45A
:1008AF000103538E7FEF7003438E80EFB402054335
:1008BF00890480035389FB120DF7B40105438F019F
:1008CF008003538FFE120DEBE5F0F58C120DEBF557
:1008DF008A120DFDB40102D28C7F0022ED640170EB
:1008EF006EC28E120DF1B40104D2AB8002C2AB9076
:1008FF00000112009FB40104D2BB8002C2BB1200E0
:10090F0086FEC3940340037F0222E58954CF120D64
:10091F00E2FFB40103538EBFEF7003438E40EFB479
:10092F00020543894080035389BF120DF7B40105B7
:10093F00438F028003538FFD120DEBE5F0F58D12FF
:10094F000DEBF58B120DFDB40102D28E7F0022ED5F
:10095F006402705F538EEF120DF1B4010543AF04C3
:10096F00800353AFFB120DE5FED3940240037F02C9
:10097F0022EEB40103538EFB120DE57003438E0478
:10098F00120DE5B40205438E088003538EF7120D46
:10099F00F7B40105438F048003538FFB120DEBFD5A
:1009AF00ACF0ECF5D68DD7120DFDB40103438E10CC
:0609BF007F00227F0222EE
:100EA500AF1BAE1AAD19AC1878080201E3AB15AA51
:040EB50016A9172241
:0606F5008B158A1689171F
:1006FB00EF6401600302086C752101F522F523F507
:10070B0024F525F526F5277F407868E4F608DFFC0D
:10071B007F407828E4F608DFFC120EB2120086D375
:10072B0094C040037F012290000A12009FB4010481
:10073B00D2BC8002C2BC120086FFE598543F4FF535
:10074B0098EF64C06008EF644060030207F6900006
:10075B00021201F67F007E307D2A7C001201408F51
:10076B001B8E1A8D198C18E4FFFE7D01FCAB1BAAA6
:10077B001AA919A818C31201D240037F0222C3E49D
:10078B00951BF51BE4951AF51A74019519F519E4E7
:10079B009518F518120EB290000112009FFB640120
:1007AB007022C28E538EFE5389BF5389CF438E4026
:1007BB00120EA58F8D851B8BC2AB5389BF538FFD3B
:1007CB00D28E8058EB6402701F538EEF438E015311
:1007DB008EF7438E04120EA58FD6851BD753AFFB16
:1007EB00538EF7438E1080347F0222120EB212000A
:1007FB0086FF701390000812009FB40105438E20F2
:10080B00801A538EDF8015EFB48011900008120010
:10081B009FB40105438780800353877F120EB290EC
:10082B00000912009FB40104D2AC8002C2AC90004C
:10083B000712009FB40104D29C8002C29C90000B53
:10084B0012009F54C0FFE5A2543F4FF5A290000C3D
:10085B0012009FB4010543971080035397EF7F005D
:03086B00227F03E6
:01086E002267
:100E0300E52470FC74682523F8A6070523E523C3AE
:100E130094404003E4F523E5247005752401D29939
:010E230022AC
:100EB900120086FF600C120E03740129F9E43AFA54
:030EC90080EE2296
:03002300020C16B6
:100C1600C0E0C0D075D000C000C00730981DC29893
:100C2600E5277017E525C394404003752500AF25D9
:100C3600052574282FF8A699752605309921C2999D
:100C4600E5226523601674682522F8E6F5990522E3
:100C5600E522C3944040087522008003752400D025
:080C660007D000D0D0D0E0322D
:1005790053797374656D20656E7465727920506F57
:1005890077657220446F776E206D6F6465202E2E1B
:100599002E0D0A0D0A00436F6C6420726573657431
:1005A9002C2064656C617920347320656E746572E2
:1005B900792073797374656D202E2E2E0D0A005BD8
:1005C9004D6F746F72207374617475735D203D3D56
:1005D9003D3E200D0A005B4D6F746F72207374618C
:1005E9007475735D203C3D3D3D200D0A005B4D6FE8
:1005F900746F72207374617475735D2053746F70B6
:100609002E0D0A0D0A000D0A002A002000202020C4
:100619002020202020BAFEB1B1CAA2BCD1B5E7C6BC
:10062900F7C9E8B1B8D3D0CFDEB9ABCBBE202D2006
:10063900D6C7C4DCD7D4B6AFBACFD5A2BFD8D6C631
:10064900CFB5CDB30D0A00202056657273696F6E60
:10065900204E6F2E2020203A2056657220312E30F0
:100669000D0A00202044657369676E65642054692A
:100679006D65203A20323031362D30332D32310D2F
:100689000A00202054656C6570686F6E6520202013
:1006990020203A20303237202D203833353230307F
:1006A9003636202F2038333536373037370D0A00A4
:1006B9002020202020202020416C6C20726967684E
:1006C90074732072657365727665642028632932B4
:1006D9003031362020687474703A2F2F7777772E4F
:0C06E900736A64712E636F6D2F0D0A00A0
:0400060075C13A2264
:0A0F3300300103C38001D392942221
:100E5C007BFF7A057979120EB9D201120F3300009B
:090E6C000043870200000000228F
:100E8D00E58730E4117BFF7A05799F120EB9120EBA
:080E9D00ED5387EFD322C322BD
:100ECC00E5C730E60353C73FE5C720E50343C760DA
:010EDC0022F3
:020C6E008F08ED
:100C70007509FFE508B40110D2B7C2B675090112B3
:100C80000CB57A0579C88027E508B41010C2B7D230
:100C9000B6750910120CB57A0579DF8012D2B7D279
:100CA000B67509FF7F01120EDD7BFF7A0579F6121A
:040CB0000EB9AF09C1
:090CB400227F01120EDD7BFF22FC
:080D80008B088A09890A8D0B1A
:100D8800E4F50CE50BD394004020E4F50CE50CC326
:100D9800950B500DAB08AA09A90A120EB9050C80CB
:0A0DA800EC7BFF7A06790F120EB9FA
:010DB200221E
:100BAB007BFF7A0679127D3E120D80120C0A7A06B3
:100BBB007916120BF77A0679147D01120D807BFFE3
:100BCB007A067950120EB97BFF7A06796C120EB940
:100BDB007A06798B120BF77A0679B9120EB9120CC9
:100BEB000A7BFF7A0679127D3E020D807BFF120E87
:100BFB00B97BFF7A0679147D01120D807BFF227B76
:0B0C0B00FF7A0679147D01120D802293
:060F430090000202009F75
:0300530002000E9A
:02000E000032BE
:03005B0002001090
:020010000032BC
:0300830002001662
:020016000032B6
:100A7B00EFD3940440037F0122EF702A120F43B48B
:100A8B000104D2A88002C2A890000112009FB401F9
:100A9B0004D2B88002C2B8120086B40104D2888096
:100AAB0002C2887F0022EF6401702A120F43B40147
:100ABB0004D2AA8002C2AA90000112009FB40104C2
:100ACB00D2BA8002C2BA120086B40104D28A800262
:100ADB00C28A7F0022BF0211120F43B40105438F5C
:100AEB00108003538FEF7F0022BF0311120F43B40B
:100AFB000105438F208003538FDF7F0022BF04113A
:100B0B00120F43B40105438F408003538FBF7F0007
:040B1B00227F022211
:03000000020B1FD1
:0C0B1F00787FE4F6D8FD7581A7020B6614
:10008600BB010689828A83E0225002E722BBFE0278
:09009600E32289828A83E49322AB
:10009F00BB010CE58229F582E5833AF583E0225016
:1000AF0006E92582F8E622BBFE06E92582F8E22260
:0D00BF00E58229F582E5833AF583E493227A
:1000CC00BB0110E58229F582E5833AF583E0F5F072
:1000DC00A3E0225009E92582F886F008E622BBFE4F
:1000EC000AE92582F8E2F5F008E222E5832AF58395
:0800FC00E993F5F0A3E993225A
:1001040075F008758200EF2FFFEE33FECD33CDCCB2
:1001140033CCC58233C5829BED9AEC99E582984035
:100124000CF582EE9BFEED9AFDEC99FC0FD5F0D612
:10013400E4CEFBE4CDFAE4CCF9A88222B800C1B93C
:100144000059BA002DEC8BF084CFCECDFCE5F0CB7A
:10015400F97818EF2FFFEE33FEED33FDEC33FCEBB3
:1001640033FB10D703994004EB99FB0FD8E5E4F96E
:10017400FA227818EF2FFFEE33FEED33FDEC33FC5B
:10018400C933C910D7059BE99A4007EC9BFCE99A4F
:10019400F90FD8E0E4C9FAE4CCFB2275F010EF2F94
:1001A400FFEE33FEED33FDCC33CCC833C810D70794
:1001B4009BEC9AE899400AED9BFDEC9AFCE899F8CF
:0E01C4000FD5F0DAE4CDFBE4CCFAE4C8F92262
:1001D200EB9FF5F0EA9E42F0E99D42F0E89C45F083
:0101E20022FA
:1001E300E8600FECC313FCED13FDEE13FEEF13FFFA
:0301F300D8F1221E
:1001F600BB010DE58229F582E5833AF583020233D8
:100206005007E92582F8020226BBFE07E92582F897
:1002160002023FE58229F582E5833AF58302024C24
:100B2B000209C5E493A3F8E493A34003F68001F212
:100B3B0008DFF48029E493A3F85407240CC8C333CB
:100B4B00C4540F4420C8834004F456800146F6DF9A
:100B5B00E4800B0102040810204080900F27E47EF4
:100B6B00019360BCA3FF543F30E509541FFEE4938F
:100B7B00A360010ECF54C025E060A840B8E493A356
:100B8B00FAE493A3F8E493A3C8C582C8CAC583CA81
:100B9B00F0A3C8C582C8CAC583CADFE9DEE780BE39
:010F320000BE
:0D022600E6FB08E6F908E6FA08E6CBF82248
:0C023300E0F8A3E0F9A3E0FAA3E0FB224E
:0D023F00E2FB08E2F908E2FA08E2CBF8223F
:10024C00E493F8740193F9740293FA740393FB2208
:00000001FF
